{"abi":[{"inputs":[{"internalType":"uint256","name":"minAmt","type":"uint256"}],"name":"createCampaign","outputs":[],"stateMutability":"nonpayable","type":"function"},{"inputs":[{"internalType":"uint256","name":"","type":"uint256"}],"name":"deployedCampaigns","outputs":[{"internalType":"address","name":"","type":"address"}],"stateMutability":"view","type":"function"},{"inputs":[],"name":"getdeployedCampaigns","outputs":[{"internalType":"address[]","name":"","type":"address[]"}],"stateMutability":"view","type":"function"}],"devdoc":{"kind":"dev","methods":{},"version":1},"evm":{"assembly":"    /* \"Campaigns.sol\":3433:3796  contract CampaignFactory {... */\n  mstore(0x40, 0x80)\n  callvalue\n  dup1\n  iszero\n  tag_1\n  jumpi\n  0x00\n  dup1\n  revert\ntag_1:\n  pop\n  dataSize(sub_0)\n  dup1\n  dataOffset(sub_0)\n  0x00\n  codecopy\n  0x00\n  return\nstop\n\nsub_0: assembly {\n        /* \"Campaigns.sol\":3433:3796  contract CampaignFactory {... */\n      mstore(0x40, 0x80)\n      callvalue\n      dup1\n      iszero\n      tag_1\n      jumpi\n      0x00\n      dup1\n      revert\n    tag_1:\n      pop\n      jumpi(tag_2, lt(calldatasize, 0x04))\n      shr(0xe0, calldataload(0x00))\n      dup1\n      0x339d50a5\n      eq\n      tag_3\n      jumpi\n      dup1\n      0x7e4b95f2\n      eq\n      tag_4\n      jumpi\n      dup1\n      0xa3303a75\n      eq\n      tag_5\n      jumpi\n    tag_2:\n      0x00\n      dup1\n      revert\n        /* \"Campaigns.sol\":3464:3498  address[] public deployedCampaigns */\n    tag_3:\n      tag_6\n      0x04\n      dup1\n      calldatasize\n      sub\n      dup2\n      add\n      swap1\n      tag_7\n      swap2\n      swap1\n      tag_8\n      jump\t// in\n    tag_7:\n      tag_9\n      jump\t// in\n    tag_6:\n      mload(0x40)\n      tag_10\n      swap2\n      swap1\n      tag_11\n      jump\t// in\n    tag_10:\n      mload(0x40)\n      dup1\n      swap2\n      sub\n      swap1\n      return\n        /* \"Campaigns.sol\":3505:3617  function getdeployedCampaigns() public view returns (address[] memory) {... */\n    tag_4:\n      tag_12\n      tag_13\n      jump\t// in\n    tag_12:\n      mload(0x40)\n      tag_14\n      swap2\n      swap1\n      tag_15\n      jump\t// in\n    tag_14:\n      mload(0x40)\n      dup1\n      swap2\n      sub\n      swap1\n      return\n        /* \"Campaigns.sol\":3623:3794  function createCampaign(uint minAmt) public {... */\n    tag_5:\n      tag_16\n      0x04\n      dup1\n      calldatasize\n      sub\n      dup2\n      add\n      swap1\n      tag_17\n      swap2\n      swap1\n      tag_8\n      jump\t// in\n    tag_17:\n      tag_18\n      jump\t// in\n    tag_16:\n      stop\n        /* \"Campaigns.sol\":3464:3498  address[] public deployedCampaigns */\n    tag_9:\n      0x00\n      dup2\n      dup2\n      sload\n      dup2\n      lt\n      tag_19\n      jumpi\n      0x00\n      dup1\n      revert\n    tag_19:\n      swap1\n      0x00\n      mstore\n      keccak256(0x00, 0x20)\n      add\n      0x00\n      swap2\n      pop\n      sload\n      swap1\n      0x0100\n      exp\n      swap1\n      div\n      0xffffffffffffffffffffffffffffffffffffffff\n      and\n      dup2\n      jump\t// out\n        /* \"Campaigns.sol\":3505:3617  function getdeployedCampaigns() public view returns (address[] memory) {... */\n    tag_13:\n        /* \"Campaigns.sol\":3558:3574  address[] memory */\n      0x60\n        /* \"Campaigns.sol\":3593:3610  deployedCampaigns */\n      0x00\n        /* \"Campaigns.sol\":3586:3610  return deployedCampaigns */\n      dup1\n      sload\n      dup1\n      0x20\n      mul\n      0x20\n      add\n      mload(0x40)\n      swap1\n      dup2\n      add\n      0x40\n      mstore\n      dup1\n      swap3\n      swap2\n      swap1\n      dup2\n      dup2\n      mstore\n      0x20\n      add\n      dup3\n      dup1\n      sload\n      dup1\n      iszero\n      tag_22\n      jumpi\n      0x20\n      mul\n      dup3\n      add\n      swap2\n      swap1\n      0x00\n      mstore\n      keccak256(0x00, 0x20)\n      swap1\n    tag_23:\n      dup2\n      0x00\n      swap1\n      sload\n      swap1\n      0x0100\n      exp\n      swap1\n      div\n      0xffffffffffffffffffffffffffffffffffffffff\n      and\n      0xffffffffffffffffffffffffffffffffffffffff\n      and\n      dup2\n      mstore\n      0x20\n      add\n      swap1\n      0x01\n      add\n      swap1\n      dup1\n      dup4\n      gt\n      tag_23\n      jumpi\n    tag_22:\n      pop\n      pop\n      pop\n      pop\n      pop\n      swap1\n      pop\n        /* \"Campaigns.sol\":3505:3617  function getdeployedCampaigns() public view returns (address[] memory) {... */\n      swap1\n      jump\t// out\n        /* \"Campaigns.sol\":3623:3794  function createCampaign(uint minAmt) public {... */\n    tag_18:\n        /* \"Campaigns.sol\":3677:3697  address campaignAddr */\n      0x00\n        /* \"Campaigns.sol\":3721:3727  minAmt */\n      dup2\n        /* \"Campaigns.sol\":3729:3739  msg.sender */\n      caller\n        /* \"Campaigns.sol\":3708:3740  new Campaign(minAmt, msg.sender) */\n      mload(0x40)\n      tag_25\n      swap1\n      tag_26\n      jump\t// in\n    tag_25:\n      tag_27\n      swap3\n      swap2\n      swap1\n      tag_28\n      jump\t// in\n    tag_27:\n      mload(0x40)\n      dup1\n      swap2\n      sub\n      swap1\n      0x00\n      create\n      dup1\n      iszero\n      dup1\n      iszero\n      tag_29\n      jumpi\n      returndatasize\n      0x00\n      dup1\n      returndatacopy\n      revert(0x00, returndatasize)\n    tag_29:\n      pop\n        /* \"Campaigns.sol\":3677:3741  address campaignAddr = address(new Campaign(minAmt, msg.sender)) */\n      swap1\n      pop\n        /* \"Campaigns.sol\":3751:3768  deployedCampaigns */\n      0x00\n        /* \"Campaigns.sol\":3774:3786  campaignAddr */\n      dup2\n        /* \"Campaigns.sol\":3751:3787  deployedCampaigns.push(campaignAddr) */\n      swap1\n      dup1\n      0x01\n      dup2\n      sload\n      add\n      dup1\n      dup3\n      sstore\n      dup1\n      swap2\n      pop\n      pop\n      0x01\n      swap1\n      sub\n      swap1\n      0x00\n      mstore\n      keccak256(0x00, 0x20)\n      add\n      0x00\n      swap1\n      swap2\n      swap1\n      swap2\n      swap1\n      swap2\n      0x0100\n      exp\n      dup2\n      sload\n      dup2\n      0xffffffffffffffffffffffffffffffffffffffff\n      mul\n      not\n      and\n      swap1\n      dup4\n      0xffffffffffffffffffffffffffffffffffffffff\n      and\n      mul\n      or\n      swap1\n      sstore\n      pop\n        /* \"Campaigns.sol\":3667:3794  {... */\n      pop\n        /* \"Campaigns.sol\":3623:3794  function createCampaign(uint minAmt) public {... */\n      pop\n      jump\t// out\n    tag_26:\n      dataSize(sub_0)\n      dup1\n      dataOffset(sub_0)\n      dup4\n      codecopy\n      add\n      swap1\n      jump\t// out\n        /* \"#utility.yul\":88:205   */\n    tag_32:\n        /* \"#utility.yul\":197:198   */\n      0x00\n        /* \"#utility.yul\":194:195   */\n      dup1\n        /* \"#utility.yul\":187:199   */\n      revert\n        /* \"#utility.yul\":334:411   */\n    tag_34:\n        /* \"#utility.yul\":371:378   */\n      0x00\n        /* \"#utility.yul\":400:405   */\n      dup2\n        /* \"#utility.yul\":389:405   */\n      swap1\n      pop\n        /* \"#utility.yul\":334:411   */\n      swap2\n      swap1\n      pop\n      jump\t// out\n        /* \"#utility.yul\":417:539   */\n    tag_35:\n        /* \"#utility.yul\":490:514   */\n      tag_54\n        /* \"#utility.yul\":508:513   */\n      dup2\n        /* \"#utility.yul\":490:514   */\n      tag_34\n      jump\t// in\n    tag_54:\n        /* \"#utility.yul\":483:488   */\n      dup2\n        /* \"#utility.yul\":480:515   */\n      eq\n        /* \"#utility.yul\":470:533   */\n      tag_55\n      jumpi\n        /* \"#utility.yul\":529:530   */\n      0x00\n        /* \"#utility.yul\":526:527   */\n      dup1\n        /* \"#utility.yul\":519:531   */\n      revert\n        /* \"#utility.yul\":470:533   */\n    tag_55:\n        /* \"#utility.yul\":417:539   */\n      pop\n      jump\t// out\n        /* \"#utility.yul\":545:684   */\n    tag_36:\n        /* \"#utility.yul\":591:596   */\n      0x00\n        /* \"#utility.yul\":629:635   */\n      dup2\n        /* \"#utility.yul\":616:636   */\n      calldataload\n        /* \"#utility.yul\":607:636   */\n      swap1\n      pop\n        /* \"#utility.yul\":645:678   */\n      tag_57\n        /* \"#utility.yul\":672:677   */\n      dup2\n        /* \"#utility.yul\":645:678   */\n      tag_35\n      jump\t// in\n    tag_57:\n        /* \"#utility.yul\":545:684   */\n      swap3\n      swap2\n      pop\n      pop\n      jump\t// out\n        /* \"#utility.yul\":690:1019   */\n    tag_8:\n        /* \"#utility.yul\":749:755   */\n      0x00\n        /* \"#utility.yul\":798:800   */\n      0x20\n        /* \"#utility.yul\":786:795   */\n      dup3\n        /* \"#utility.yul\":777:784   */\n      dup5\n        /* \"#utility.yul\":773:796   */\n      sub\n        /* \"#utility.yul\":769:801   */\n      slt\n        /* \"#utility.yul\":766:885   */\n      iszero\n      tag_59\n      jumpi\n        /* \"#utility.yul\":804:883   */\n      tag_60\n      tag_32\n      jump\t// in\n    tag_60:\n        /* \"#utility.yul\":766:885   */\n    tag_59:\n        /* \"#utility.yul\":924:925   */\n      0x00\n        /* \"#utility.yul\":949:1002   */\n      tag_61\n        /* \"#utility.yul\":994:1001   */\n      dup5\n        /* \"#utility.yul\":985:991   */\n      dup3\n        /* \"#utility.yul\":974:983   */\n      dup6\n        /* \"#utility.yul\":970:992   */\n      add\n        /* \"#utility.yul\":949:1002   */\n      tag_36\n      jump\t// in\n    tag_61:\n        /* \"#utility.yul\":939:1002   */\n      swap2\n      pop\n        /* \"#utility.yul\":895:1012   */\n      pop\n        /* \"#utility.yul\":690:1019   */\n      swap3\n      swap2\n      pop\n      pop\n      jump\t// out\n        /* \"#utility.yul\":1025:1151   */\n    tag_37:\n        /* \"#utility.yul\":1062:1069   */\n      0x00\n        /* \"#utility.yul\":1102:1144   */\n      0xffffffffffffffffffffffffffffffffffffffff\n        /* \"#utility.yul\":1095:1100   */\n      dup3\n        /* \"#utility.yul\":1091:1145   */\n      and\n        /* \"#utility.yul\":1080:1145   */\n      swap1\n      pop\n        /* \"#utility.yul\":1025:1151   */\n      swap2\n      swap1\n      pop\n      jump\t// out\n        /* \"#utility.yul\":1157:1253   */\n    tag_38:\n        /* \"#utility.yul\":1194:1201   */\n      0x00\n        /* \"#utility.yul\":1223:1247   */\n      tag_64\n        /* \"#utility.yul\":1241:1246   */\n      dup3\n        /* \"#utility.yul\":1223:1247   */\n      tag_37\n      jump\t// in\n    tag_64:\n        /* \"#utility.yul\":1212:1247   */\n      swap1\n      pop\n        /* \"#utility.yul\":1157:1253   */\n      swap2\n      swap1\n      pop\n      jump\t// out\n        /* \"#utility.yul\":1259:1377   */\n    tag_39:\n        /* \"#utility.yul\":1346:1370   */\n      tag_66\n        /* \"#utility.yul\":1364:1369   */\n      dup2\n        /* \"#utility.yul\":1346:1370   */\n      tag_38\n      jump\t// in\n    tag_66:\n        /* \"#utility.yul\":1341:1344   */\n      dup3\n        /* \"#utility.yul\":1334:1371   */\n      mstore\n        /* \"#utility.yul\":1259:1377   */\n      pop\n      pop\n      jump\t// out\n        /* \"#utility.yul\":1383:1605   */\n    tag_11:\n        /* \"#utility.yul\":1476:1480   */\n      0x00\n        /* \"#utility.yul\":1514:1516   */\n      0x20\n        /* \"#utility.yul\":1503:1512   */\n      dup3\n        /* \"#utility.yul\":1499:1517   */\n      add\n        /* \"#utility.yul\":1491:1517   */\n      swap1\n      pop\n        /* \"#utility.yul\":1527:1598   */\n      tag_68\n        /* \"#utility.yul\":1595:1596   */\n      0x00\n        /* \"#utility.yul\":1584:1593   */\n      dup4\n        /* \"#utility.yul\":1580:1597   */\n      add\n        /* \"#utility.yul\":1571:1577   */\n      dup5\n        /* \"#utility.yul\":1527:1598   */\n      tag_39\n      jump\t// in\n    tag_68:\n        /* \"#utility.yul\":1383:1605   */\n      swap3\n      swap2\n      pop\n      pop\n      jump\t// out\n        /* \"#utility.yul\":1611:1725   */\n    tag_40:\n        /* \"#utility.yul\":1678:1684   */\n      0x00\n        /* \"#utility.yul\":1712:1717   */\n      dup2\n        /* \"#utility.yul\":1706:1718   */\n      mload\n        /* \"#utility.yul\":1696:1718   */\n      swap1\n      pop\n        /* \"#utility.yul\":1611:1725   */\n      swap2\n      swap1\n      pop\n      jump\t// out\n        /* \"#utility.yul\":1731:1915   */\n    tag_41:\n        /* \"#utility.yul\":1830:1841   */\n      0x00\n        /* \"#utility.yul\":1864:1870   */\n      dup3\n        /* \"#utility.yul\":1859:1862   */\n      dup3\n        /* \"#utility.yul\":1852:1871   */\n      mstore\n        /* \"#utility.yul\":1904:1908   */\n      0x20\n        /* \"#utility.yul\":1899:1902   */\n      dup3\n        /* \"#utility.yul\":1895:1909   */\n      add\n        /* \"#utility.yul\":1880:1909   */\n      swap1\n      pop\n        /* \"#utility.yul\":1731:1915   */\n      swap3\n      swap2\n      pop\n      pop\n      jump\t// out\n        /* \"#utility.yul\":1921:2053   */\n    tag_42:\n        /* \"#utility.yul\":1988:1992   */\n      0x00\n        /* \"#utility.yul\":2011:2014   */\n      dup2\n        /* \"#utility.yul\":2003:2014   */\n      swap1\n      pop\n        /* \"#utility.yul\":2041:2045   */\n      0x20\n        /* \"#utility.yul\":2036:2039   */\n      dup3\n        /* \"#utility.yul\":2032:2046   */\n      add\n        /* \"#utility.yul\":2024:2046   */\n      swap1\n      pop\n        /* \"#utility.yul\":1921:2053   */\n      swap2\n      swap1\n      pop\n      jump\t// out\n        /* \"#utility.yul\":2059:2167   */\n    tag_43:\n        /* \"#utility.yul\":2136:2160   */\n      tag_73\n        /* \"#utility.yul\":2154:2159   */\n      dup2\n        /* \"#utility.yul\":2136:2160   */\n      tag_38\n      jump\t// in\n    tag_73:\n        /* \"#utility.yul\":2131:2134   */\n      dup3\n        /* \"#utility.yul\":2124:2161   */\n      mstore\n        /* \"#utility.yul\":2059:2167   */\n      pop\n      pop\n      jump\t// out\n        /* \"#utility.yul\":2173:2352   */\n    tag_44:\n        /* \"#utility.yul\":2242:2252   */\n      0x00\n        /* \"#utility.yul\":2263:2309   */\n      tag_75\n        /* \"#utility.yul\":2305:2308   */\n      dup4\n        /* \"#utility.yul\":2297:2303   */\n      dup4\n        /* \"#utility.yul\":2263:2309   */\n      tag_43\n      jump\t// in\n    tag_75:\n        /* \"#utility.yul\":2341:2345   */\n      0x20\n        /* \"#utility.yul\":2336:2339   */\n      dup4\n        /* \"#utility.yul\":2332:2346   */\n      add\n        /* \"#utility.yul\":2318:2346   */\n      swap1\n      pop\n        /* \"#utility.yul\":2173:2352   */\n      swap3\n      swap2\n      pop\n      pop\n      jump\t// out\n        /* \"#utility.yul\":2358:2471   */\n    tag_45:\n        /* \"#utility.yul\":2428:2432   */\n      0x00\n        /* \"#utility.yul\":2460:2464   */\n      0x20\n        /* \"#utility.yul\":2455:2458   */\n      dup3\n        /* \"#utility.yul\":2451:2465   */\n      add\n        /* \"#utility.yul\":2443:2465   */\n      swap1\n      pop\n        /* \"#utility.yul\":2358:2471   */\n      swap2\n      swap1\n      pop\n      jump\t// out\n        /* \"#utility.yul\":2507:3239   */\n    tag_46:\n        /* \"#utility.yul\":2626:2629   */\n      0x00\n        /* \"#utility.yul\":2655:2709   */\n      tag_78\n        /* \"#utility.yul\":2703:2708   */\n      dup3\n        /* \"#utility.yul\":2655:2709   */\n      tag_40\n      jump\t// in\n    tag_78:\n        /* \"#utility.yul\":2725:2811   */\n      tag_79\n        /* \"#utility.yul\":2804:2810   */\n      dup2\n        /* \"#utility.yul\":2799:2802   */\n      dup6\n        /* \"#utility.yul\":2725:2811   */\n      tag_41\n      jump\t// in\n    tag_79:\n        /* \"#utility.yul\":2718:2811   */\n      swap4\n      pop\n        /* \"#utility.yul\":2835:2891   */\n      tag_80\n        /* \"#utility.yul\":2885:2890   */\n      dup4\n        /* \"#utility.yul\":2835:2891   */\n      tag_42\n      jump\t// in\n    tag_80:\n        /* \"#utility.yul\":2914:2921   */\n      dup1\n        /* \"#utility.yul\":2945:2946   */\n      0x00\n        /* \"#utility.yul\":2930:3214   */\n    tag_81:\n        /* \"#utility.yul\":2955:2961   */\n      dup4\n        /* \"#utility.yul\":2952:2953   */\n      dup2\n        /* \"#utility.yul\":2949:2962   */\n      lt\n        /* \"#utility.yul\":2930:3214   */\n      iszero\n      tag_83\n      jumpi\n        /* \"#utility.yul\":3031:3037   */\n      dup2\n        /* \"#utility.yul\":3025:3038   */\n      mload\n        /* \"#utility.yul\":3058:3121   */\n      tag_84\n        /* \"#utility.yul\":3117:3120   */\n      dup9\n        /* \"#utility.yul\":3102:3115   */\n      dup3\n        /* \"#utility.yul\":3058:3121   */\n      tag_44\n      jump\t// in\n    tag_84:\n        /* \"#utility.yul\":3051:3121   */\n      swap8\n      pop\n        /* \"#utility.yul\":3144:3204   */\n      tag_85\n        /* \"#utility.yul\":3197:3203   */\n      dup4\n        /* \"#utility.yul\":3144:3204   */\n      tag_45\n      jump\t// in\n    tag_85:\n        /* \"#utility.yul\":3134:3204   */\n      swap3\n      pop\n        /* \"#utility.yul\":2990:3214   */\n      pop\n        /* \"#utility.yul\":2977:2978   */\n      0x01\n        /* \"#utility.yul\":2974:2975   */\n      dup2\n        /* \"#utility.yul\":2970:2979   */\n      add\n        /* \"#utility.yul\":2965:2979   */\n      swap1\n      pop\n        /* \"#utility.yul\":2930:3214   */\n      jump(tag_81)\n    tag_83:\n        /* \"#utility.yul\":2934:2948   */\n      pop\n        /* \"#utility.yul\":3230:3233   */\n      dup6\n        /* \"#utility.yul\":3223:3233   */\n      swap4\n      pop\n        /* \"#utility.yul\":2631:3239   */\n      pop\n      pop\n      pop\n        /* \"#utility.yul\":2507:3239   */\n      swap3\n      swap2\n      pop\n      pop\n      jump\t// out\n        /* \"#utility.yul\":3245:3618   */\n    tag_15:\n        /* \"#utility.yul\":3388:3392   */\n      0x00\n        /* \"#utility.yul\":3426:3428   */\n      0x20\n        /* \"#utility.yul\":3415:3424   */\n      dup3\n        /* \"#utility.yul\":3411:3429   */\n      add\n        /* \"#utility.yul\":3403:3429   */\n      swap1\n      pop\n        /* \"#utility.yul\":3475:3484   */\n      dup2\n        /* \"#utility.yul\":3469:3473   */\n      dup2\n        /* \"#utility.yul\":3465:3485   */\n      sub\n        /* \"#utility.yul\":3461:3462   */\n      0x00\n        /* \"#utility.yul\":3450:3459   */\n      dup4\n        /* \"#utility.yul\":3446:3463   */\n      add\n        /* \"#utility.yul\":3439:3486   */\n      mstore\n        /* \"#utility.yul\":3503:3611   */\n      tag_87\n        /* \"#utility.yul\":3606:3610   */\n      dup2\n        /* \"#utility.yul\":3597:3603   */\n      dup5\n        /* \"#utility.yul\":3503:3611   */\n      tag_46\n      jump\t// in\n    tag_87:\n        /* \"#utility.yul\":3495:3611   */\n      swap1\n      pop\n        /* \"#utility.yul\":3245:3618   */\n      swap3\n      swap2\n      pop\n      pop\n      jump\t// out\n        /* \"#utility.yul\":3624:3742   */\n    tag_47:\n        /* \"#utility.yul\":3711:3735   */\n      tag_89\n        /* \"#utility.yul\":3729:3734   */\n      dup2\n        /* \"#utility.yul\":3711:3735   */\n      tag_34\n      jump\t// in\n    tag_89:\n        /* \"#utility.yul\":3706:3709   */\n      dup3\n        /* \"#utility.yul\":3699:3736   */\n      mstore\n        /* \"#utility.yul\":3624:3742   */\n      pop\n      pop\n      jump\t// out\n        /* \"#utility.yul\":3748:4080   */\n    tag_28:\n        /* \"#utility.yul\":3869:3873   */\n      0x00\n        /* \"#utility.yul\":3907:3909   */\n      0x40\n        /* \"#utility.yul\":3896:3905   */\n      dup3\n        /* \"#utility.yul\":3892:3910   */\n      add\n        /* \"#utility.yul\":3884:3910   */\n      swap1\n      pop\n        /* \"#utility.yul\":3920:3991   */\n      tag_91\n        /* \"#utility.yul\":3988:3989   */\n      0x00\n        /* \"#utility.yul\":3977:3986   */\n      dup4\n        /* \"#utility.yul\":3973:3990   */\n      add\n        /* \"#utility.yul\":3964:3970   */\n      dup6\n        /* \"#utility.yul\":3920:3991   */\n      tag_47\n      jump\t// in\n    tag_91:\n        /* \"#utility.yul\":4001:4073   */\n      tag_92\n        /* \"#utility.yul\":4069:4071   */\n      0x20\n        /* \"#utility.yul\":4058:4067   */\n      dup4\n        /* \"#utility.yul\":4054:4072   */\n      add\n        /* \"#utility.yul\":4045:4051   */\n      dup5\n        /* \"#utility.yul\":4001:4073   */\n      tag_39\n      jump\t// in\n    tag_92:\n        /* \"#utility.yul\":3748:4080   */\n      swap4\n      swap3\n      pop\n      pop\n      pop\n      jump\t// out\n    stop\n\n    sub_0: assembly {\n            /* \"Campaigns.sol\":57:3431  contract Campaign {... */\n          mstore(0x40, 0x80)\n            /* \"Campaigns.sol\":467:577  constructor(uint minAmt, address creator) {... */\n          callvalue\n          dup1\n          iszero\n          tag_1\n          jumpi\n          0x00\n          dup1\n          revert\n        tag_1:\n          pop\n          mload(0x40)\n          sub(codesize, bytecodeSize)\n          dup1\n          bytecodeSize\n          dup4\n          codecopy\n          dup2\n          dup2\n          add\n          0x40\n          mstore\n          dup2\n          add\n          swap1\n          tag_2\n          swap2\n          swap1\n          tag_3\n          jump\t// in\n        tag_2:\n            /* \"Campaigns.sol\":529:536  creator */\n          dup1\n            /* \"Campaigns.sol\":519:526  manager */\n          0x01\n          0x00\n            /* \"Campaigns.sol\":519:536  manager = creator */\n          0x0100\n          exp\n          dup2\n          sload\n          dup2\n          0xffffffffffffffffffffffffffffffffffffffff\n          mul\n          not\n          and\n          swap1\n          dup4\n          0xffffffffffffffffffffffffffffffffffffffff\n          and\n          mul\n          or\n          swap1\n          sstore\n          pop\n            /* \"Campaigns.sol\":564:570  minAmt */\n          dup2\n            /* \"Campaigns.sol\":546:561  minContribution */\n          0x03\n            /* \"Campaigns.sol\":546:570  minContribution = minAmt */\n          dup2\n          swap1\n          sstore\n          pop\n            /* \"Campaigns.sol\":467:577  constructor(uint minAmt, address creator) {... */\n          pop\n          pop\n            /* \"Campaigns.sol\":57:3431  contract Campaign {... */\n          jump(tag_6)\n            /* \"#utility.yul\":88:205   */\n        tag_8:\n            /* \"#utility.yul\":197:198   */\n          0x00\n            /* \"#utility.yul\":194:195   */\n          dup1\n            /* \"#utility.yul\":187:199   */\n          revert\n            /* \"#utility.yul\":334:411   */\n        tag_10:\n            /* \"#utility.yul\":371:378   */\n          0x00\n            /* \"#utility.yul\":400:405   */\n          dup2\n            /* \"#utility.yul\":389:405   */\n          swap1\n          pop\n            /* \"#utility.yul\":334:411   */\n          swap2\n          swap1\n          pop\n          jump\t// out\n            /* \"#utility.yul\":417:539   */\n        tag_11:\n            /* \"#utility.yul\":490:514   */\n          tag_23\n            /* \"#utility.yul\":508:513   */\n          dup2\n            /* \"#utility.yul\":490:514   */\n          tag_10\n          jump\t// in\n        tag_23:\n            /* \"#utility.yul\":483:488   */\n          dup2\n            /* \"#utility.yul\":480:515   */\n          eq\n            /* \"#utility.yul\":470:533   */\n          tag_24\n          jumpi\n            /* \"#utility.yul\":529:530   */\n          0x00\n            /* \"#utility.yul\":526:527   */\n          dup1\n            /* \"#utility.yul\":519:531   */\n          revert\n            /* \"#utility.yul\":470:533   */\n        tag_24:\n            /* \"#utility.yul\":417:539   */\n          pop\n          jump\t// out\n            /* \"#utility.yul\":545:688   */\n        tag_12:\n            /* \"#utility.yul\":602:607   */\n          0x00\n            /* \"#utility.yul\":633:639   */\n          dup2\n            /* \"#utility.yul\":627:640   */\n          mload\n            /* \"#utility.yul\":618:640   */\n          swap1\n          pop\n            /* \"#utility.yul\":649:682   */\n          tag_26\n            /* \"#utility.yul\":676:681   */\n          dup2\n            /* \"#utility.yul\":649:682   */\n          tag_11\n          jump\t// in\n        tag_26:\n            /* \"#utility.yul\":545:688   */\n          swap3\n          swap2\n          pop\n          pop\n          jump\t// out\n            /* \"#utility.yul\":694:820   */\n        tag_13:\n            /* \"#utility.yul\":731:738   */\n          0x00\n            /* \"#utility.yul\":771:813   */\n          0xffffffffffffffffffffffffffffffffffffffff\n            /* \"#utility.yul\":764:769   */\n          dup3\n            /* \"#utility.yul\":760:814   */\n          and\n            /* \"#utility.yul\":749:814   */\n          swap1\n          pop\n            /* \"#utility.yul\":694:820   */\n          swap2\n          swap1\n          pop\n          jump\t// out\n            /* \"#utility.yul\":826:922   */\n        tag_14:\n            /* \"#utility.yul\":863:870   */\n          0x00\n            /* \"#utility.yul\":892:916   */\n          tag_29\n            /* \"#utility.yul\":910:915   */\n          dup3\n            /* \"#utility.yul\":892:916   */\n          tag_13\n          jump\t// in\n        tag_29:\n            /* \"#utility.yul\":881:916   */\n          swap1\n          pop\n            /* \"#utility.yul\":826:922   */\n          swap2\n          swap1\n          pop\n          jump\t// out\n            /* \"#utility.yul\":928:1050   */\n        tag_15:\n            /* \"#utility.yul\":1001:1025   */\n          tag_31\n            /* \"#utility.yul\":1019:1024   */\n          dup2\n            /* \"#utility.yul\":1001:1025   */\n          tag_14\n          jump\t// in\n        tag_31:\n            /* \"#utility.yul\":994:999   */\n          dup2\n            /* \"#utility.yul\":991:1026   */\n          eq\n            /* \"#utility.yul\":981:1044   */\n          tag_32\n          jumpi\n            /* \"#utility.yul\":1040:1041   */\n          0x00\n            /* \"#utility.yul\":1037:1038   */\n          dup1\n            /* \"#utility.yul\":1030:1042   */\n          revert\n            /* \"#utility.yul\":981:1044   */\n        tag_32:\n            /* \"#utility.yul\":928:1050   */\n          pop\n          jump\t// out\n            /* \"#utility.yul\":1056:1199   */\n        tag_16:\n            /* \"#utility.yul\":1113:1118   */\n          0x00\n            /* \"#utility.yul\":1144:1150   */\n          dup2\n            /* \"#utility.yul\":1138:1151   */\n          mload\n            /* \"#utility.yul\":1129:1151   */\n          swap1\n          pop\n            /* \"#utility.yul\":1160:1193   */\n          tag_34\n            /* \"#utility.yul\":1187:1192   */\n          dup2\n            /* \"#utility.yul\":1160:1193   */\n          tag_15\n          jump\t// in\n        tag_34:\n            /* \"#utility.yul\":1056:1199   */\n          swap3\n          swap2\n          pop\n          pop\n          jump\t// out\n            /* \"#utility.yul\":1205:1712   */\n        tag_3:\n            /* \"#utility.yul\":1284:1290   */\n          0x00\n            /* \"#utility.yul\":1292:1298   */\n          dup1\n            /* \"#utility.yul\":1341:1343   */\n          0x40\n            /* \"#utility.yul\":1329:1338   */\n          dup4\n            /* \"#utility.yul\":1320:1327   */\n          dup6\n            /* \"#utility.yul\":1316:1339   */\n          sub\n            /* \"#utility.yul\":1312:1344   */\n          slt\n            /* \"#utility.yul\":1309:1428   */\n          iszero\n          tag_36\n          jumpi\n            /* \"#utility.yul\":1347:1426   */\n          tag_37\n          tag_8\n          jump\t// in\n        tag_37:\n            /* \"#utility.yul\":1309:1428   */\n        tag_36:\n            /* \"#utility.yul\":1467:1468   */\n          0x00\n            /* \"#utility.yul\":1492:1556   */\n          tag_38\n            /* \"#utility.yul\":1548:1555   */\n          dup6\n            /* \"#utility.yul\":1539:1545   */\n          dup3\n            /* \"#utility.yul\":1528:1537   */\n          dup7\n            /* \"#utility.yul\":1524:1546   */\n          add\n            /* \"#utility.yul\":1492:1556   */\n          tag_12\n          jump\t// in\n        tag_38:\n            /* \"#utility.yul\":1482:1556   */\n          swap3\n          pop\n            /* \"#utility.yul\":1438:1566   */\n          pop\n            /* \"#utility.yul\":1605:1607   */\n          0x20\n            /* \"#utility.yul\":1631:1695   */\n          tag_39\n            /* \"#utility.yul\":1687:1694   */\n          dup6\n            /* \"#utility.yul\":1678:1684   */\n          dup3\n            /* \"#utility.yul\":1667:1676   */\n          dup7\n            /* \"#utility.yul\":1663:1685   */\n          add\n            /* \"#utility.yul\":1631:1695   */\n          tag_16\n          jump\t// in\n        tag_39:\n            /* \"#utility.yul\":1621:1695   */\n          swap2\n          pop\n            /* \"#utility.yul\":1576:1705   */\n          pop\n            /* \"#utility.yul\":1205:1712   */\n          swap3\n          pop\n          swap3\n          swap1\n          pop\n          jump\t// out\n            /* \"Campaigns.sol\":57:3431  contract Campaign {... */\n        tag_6:\n          dataSize(sub_0)\n          dup1\n          dataOffset(sub_0)\n          0x00\n          codecopy\n          0x00\n          return\n        stop\n\n        sub_0: assembly {\n                /* \"Campaigns.sol\":57:3431  contract Campaign {... */\n              mstore(0x40, 0x80)\n              jumpi(tag_1, lt(calldatasize, 0x04))\n              shr(0xe0, calldataload(0x00))\n              dup1\n              0x81d12c58\n              gt\n              tag_15\n              jumpi\n              dup1\n              0xaaffadf3\n              gt\n              tag_16\n              jumpi\n              dup1\n              0xaaffadf3\n              eq\n              tag_11\n              jumpi\n              dup1\n              0xd5009584\n              eq\n              tag_12\n              jumpi\n              dup1\n              0xd7bb99ba\n              eq\n              tag_13\n              jumpi\n              dup1\n              0xd7d1bbdb\n              eq\n              tag_14\n              jumpi\n              jump(tag_1)\n            tag_16:\n              dup1\n              0x81d12c58\n              eq\n              tag_8\n              jumpi\n              dup1\n              0x8a9cfd55\n              eq\n              tag_9\n              jumpi\n              dup1\n              0xa00c96d7\n              eq\n              tag_10\n              jumpi\n              jump(tag_1)\n            tag_15:\n              dup1\n              0x03441006\n              eq\n              tag_2\n              jumpi\n              dup1\n              0x12065fe0\n              eq\n              tag_3\n              jumpi\n              dup1\n              0x1f6d4942\n              eq\n              tag_4\n              jumpi\n              dup1\n              0x3410452a\n              eq\n              tag_5\n              jumpi\n              dup1\n              0x481c6a75\n              eq\n              tag_6\n              jumpi\n              dup1\n              0x6cff7473\n              eq\n              tag_7\n              jumpi\n            tag_1:\n              0x00\n              dup1\n              revert\n                /* \"Campaigns.sol\":3007:3329  function finalizeRequest(uint reqIndex) public only_manager_can_execute {... */\n            tag_2:\n              callvalue\n              dup1\n              iszero\n              tag_17\n              jumpi\n              0x00\n              dup1\n              revert\n            tag_17:\n              pop\n              tag_18\n              0x04\n              dup1\n              calldatasize\n              sub\n              dup2\n              add\n              swap1\n              tag_19\n              swap2\n              swap1\n              tag_20\n              jump\t// in\n            tag_19:\n              tag_21\n              jump\t// in\n            tag_18:\n              stop\n                /* \"Campaigns.sol\":898:991  function getBalance() public view returns (uint){... */\n            tag_3:\n              callvalue\n              dup1\n              iszero\n              tag_22\n              jumpi\n              0x00\n              dup1\n              revert\n            tag_22:\n              pop\n              tag_23\n              tag_24\n              jump\t// in\n            tag_23:\n              mload(0x40)\n              tag_25\n              swap2\n              swap1\n              tag_26\n              jump\t// in\n            tag_25:\n              mload(0x40)\n              dup1\n              swap2\n              sub\n              swap1\n              return\n                /* \"Campaigns.sol\":350:395  mapping (address => bool) public contributors */\n            tag_4:\n              callvalue\n              dup1\n              iszero\n              tag_27\n              jumpi\n              0x00\n              dup1\n              revert\n            tag_27:\n              pop\n              tag_28\n              0x04\n              dup1\n              calldatasize\n              sub\n              dup2\n              add\n              swap1\n              tag_29\n              swap2\n              swap1\n              tag_30\n              jump\t// in\n            tag_29:\n              tag_31\n              jump\t// in\n            tag_28:\n              mload(0x40)\n              tag_32\n              swap2\n              swap1\n              tag_33\n              jump\t// in\n            tag_32:\n              mload(0x40)\n              dup1\n              swap2\n              sub\n              swap1\n              return\n                /* \"Campaigns.sol\":1265:1358  function getRequestsCount() public view returns(uint) {... */\n            tag_5:\n              callvalue\n              dup1\n              iszero\n              tag_34\n              jumpi\n              0x00\n              dup1\n              revert\n            tag_34:\n              pop\n              tag_35\n              tag_36\n              jump\t// in\n            tag_35:\n              mload(0x40)\n              tag_37\n              swap2\n              swap1\n              tag_26\n              jump\t// in\n            tag_37:\n              mload(0x40)\n              dup1\n              swap2\n              sub\n              swap1\n              return\n                /* \"Campaigns.sol\":322:344  address public manager */\n            tag_6:\n              callvalue\n              dup1\n              iszero\n              tag_38\n              jumpi\n              0x00\n              dup1\n              revert\n            tag_38:\n              pop\n              tag_39\n              tag_40\n              jump\t// in\n            tag_39:\n              mload(0x40)\n              tag_41\n              swap2\n              swap1\n              tag_42\n              jump\t// in\n            tag_41:\n              mload(0x40)\n              dup1\n              swap2\n              sub\n              swap1\n              return\n                /* \"Campaigns.sol\":583:678  function getMinContribution() public view returns (uint){... */\n            tag_7:\n              callvalue\n              dup1\n              iszero\n              tag_43\n              jumpi\n              0x00\n              dup1\n              revert\n            tag_43:\n              pop\n              tag_44\n              tag_45\n              jump\t// in\n            tag_44:\n              mload(0x40)\n              tag_46\n              swap2\n              swap1\n              tag_26\n              jump\t// in\n            tag_46:\n              mload(0x40)\n              dup1\n              swap2\n              sub\n              swap1\n              return\n                /* \"Campaigns.sol\":290:315  Request[] public requests */\n            tag_8:\n              callvalue\n              dup1\n              iszero\n              tag_47\n              jumpi\n              0x00\n              dup1\n              revert\n            tag_47:\n              pop\n              tag_48\n              0x04\n              dup1\n              calldatasize\n              sub\n              dup2\n              add\n              swap1\n              tag_49\n              swap2\n              swap1\n              tag_20\n              jump\t// in\n            tag_49:\n              tag_50\n              jump\t// in\n            tag_48:\n              mload(0x40)\n              tag_51\n              swap6\n              swap5\n              swap4\n              swap3\n              swap2\n              swap1\n              tag_52\n              jump\t// in\n            tag_51:\n              mload(0x40)\n              dup1\n              swap2\n              sub\n              swap1\n              return\n                /* \"Campaigns.sol\":1911:2496  function createRequest(string memory desc, uint val, address payable rcpnt ) public only_manager_can_execute{... */\n            tag_9:\n              callvalue\n              dup1\n              iszero\n              tag_53\n              jumpi\n              0x00\n              dup1\n              revert\n            tag_53:\n              pop\n              tag_54\n              0x04\n              dup1\n              calldatasize\n              sub\n              dup2\n              add\n              swap1\n              tag_55\n              swap2\n              swap1\n              tag_56\n              jump\t// in\n            tag_55:\n              tag_57\n              jump\t// in\n            tag_54:\n              stop\n                /* \"Campaigns.sol\":997:1259  function getCampaignSummary() public view returns(uint, uint, uint, uint, address) {... */\n            tag_10:\n              callvalue\n              dup1\n              iszero\n              tag_58\n              jumpi\n              0x00\n              dup1\n              revert\n            tag_58:\n              pop\n              tag_59\n              tag_60\n              jump\t// in\n            tag_59:\n              mload(0x40)\n              tag_61\n              swap6\n              swap5\n              swap4\n              swap3\n              swap2\n              swap1\n              tag_62\n              jump\t// in\n            tag_61:\n              mload(0x40)\n              dup1\n              swap2\n              sub\n              swap1\n              return\n                /* \"Campaigns.sol\":401:428  uint public minContribution */\n            tag_11:\n              callvalue\n              dup1\n              iszero\n              tag_63\n              jumpi\n              0x00\n              dup1\n              revert\n            tag_63:\n              pop\n              tag_64\n              tag_65\n              jump\t// in\n            tag_64:\n              mload(0x40)\n              tag_66\n              swap2\n              swap1\n              tag_26\n              jump\t// in\n            tag_66:\n              mload(0x40)\n              dup1\n              swap2\n              sub\n              swap1\n              return\n                /* \"Campaigns.sol\":684:766  function getManager() public view returns (address){... */\n            tag_12:\n              callvalue\n              dup1\n              iszero\n              tag_67\n              jumpi\n              0x00\n              dup1\n              revert\n            tag_67:\n              pop\n              tag_68\n              tag_69\n              jump\t// in\n            tag_68:\n              mload(0x40)\n              tag_70\n              swap2\n              swap1\n              tag_42\n              jump\t// in\n            tag_70:\n              mload(0x40)\n              dup1\n              swap2\n              sub\n              swap1\n              return\n                /* \"Campaigns.sol\":1556:1905  function contribute() public payable {... */\n            tag_13:\n              tag_71\n              tag_72\n              jump\t// in\n            tag_71:\n              stop\n                /* \"Campaigns.sol\":2502:3001  function approveRequest(uint reqIndex) public {... */\n            tag_14:\n              callvalue\n              dup1\n              iszero\n              tag_73\n              jumpi\n              0x00\n              dup1\n              revert\n            tag_73:\n              pop\n              tag_74\n              0x04\n              dup1\n              calldatasize\n              sub\n              dup2\n              add\n              swap1\n              tag_75\n              swap2\n              swap1\n              tag_20\n              jump\t// in\n            tag_75:\n              tag_76\n              jump\t// in\n            tag_74:\n              stop\n                /* \"Campaigns.sol\":3007:3329  function finalizeRequest(uint reqIndex) public only_manager_can_execute {... */\n            tag_21:\n                /* \"Campaigns.sol\":3403:3410  manager */\n              0x01\n              0x00\n              swap1\n              sload\n              swap1\n              0x0100\n              exp\n              swap1\n              div\n              0xffffffffffffffffffffffffffffffffffffffff\n              and\n                /* \"Campaigns.sol\":3389:3410  msg.sender == manager */\n              0xffffffffffffffffffffffffffffffffffffffff\n              and\n                /* \"Campaigns.sol\":3389:3399  msg.sender */\n              caller\n                /* \"Campaigns.sol\":3389:3410  msg.sender == manager */\n              0xffffffffffffffffffffffffffffffffffffffff\n              and\n              eq\n                /* \"Campaigns.sol\":3381:3411  require(msg.sender == manager) */\n              tag_78\n              jumpi\n              0x00\n              dup1\n              revert\n            tag_78:\n                /* \"Campaigns.sol\":3089:3108  Request storage req */\n              0x00\n                /* \"Campaigns.sol\":3111:3119  requests */\n              dup1\n                /* \"Campaigns.sol\":3120:3128  reqIndex */\n              dup3\n                /* \"Campaigns.sol\":3111:3129  requests[reqIndex] */\n              dup2\n              sload\n              dup2\n              lt\n              tag_80\n              jumpi\n              tag_81\n              tag_82\n              jump\t// in\n            tag_81:\n            tag_80:\n              swap1\n              0x00\n              mstore\n              keccak256(0x00, 0x20)\n              swap1\n              0x06\n              mul\n              add\n                /* \"Campaigns.sol\":3089:3129  Request storage req = requests[reqIndex] */\n              swap1\n              pop\n                /* \"Campaigns.sol\":3149:3152  req */\n              dup1\n                /* \"Campaigns.sol\":3149:3162  req.completed */\n              0x04\n              add\n              0x00\n              swap1\n              sload\n              swap1\n              0x0100\n              exp\n              swap1\n              div\n              0xff\n              and\n                /* \"Campaigns.sol\":3148:3162  !req.completed */\n              iszero\n                /* \"Campaigns.sol\":3140:3163  require(!req.completed) */\n              tag_84\n              jumpi\n              0x00\n              dup1\n              revert\n            tag_84:\n                /* \"Campaigns.sol\":3221:3222  2 */\n              0x02\n                /* \"Campaigns.sol\":3203:3220  contributorsCount */\n              sload(0x04)\n                /* \"Campaigns.sol\":3203:3222  contributorsCount/2 */\n              tag_85\n              swap2\n              swap1\n              tag_86\n              jump\t// in\n            tag_85:\n                /* \"Campaigns.sol\":3182:3185  req */\n              dup2\n                /* \"Campaigns.sol\":3182:3200  req.approvalsCount */\n              0x05\n              add\n              sload\n                /* \"Campaigns.sol\":3182:3222  req.approvalsCount > contributorsCount/2 */\n              gt\n                /* \"Campaigns.sol\":3174:3223  require(req.approvalsCount > contributorsCount/2) */\n              tag_87\n              jumpi\n              0x00\n              dup1\n              revert\n            tag_87:\n                /* \"Campaigns.sol\":3234:3242  uint amt */\n              0x00\n                /* \"Campaigns.sol\":3245:3248  req */\n              dup2\n                /* \"Campaigns.sol\":3245:3254  req.value */\n              0x01\n              add\n              sload\n                /* \"Campaigns.sol\":3234:3254  uint amt = req.value */\n              swap1\n              pop\n                /* \"Campaigns.sol\":3264:3267  req */\n              dup2\n                /* \"Campaigns.sol\":3264:3277  req.recipient */\n              0x02\n              add\n              0x00\n              swap1\n              sload\n              swap1\n              0x0100\n              exp\n              swap1\n              div\n              0xffffffffffffffffffffffffffffffffffffffff\n              and\n                /* \"Campaigns.sol\":3264:3286  req.recipient.transfer */\n              0xffffffffffffffffffffffffffffffffffffffff\n              and\n                /* \"Campaigns.sol\":3264:3291  req.recipient.transfer(amt) */\n              0x08fc\n                /* \"Campaigns.sol\":3287:3290  amt */\n              dup3\n                /* \"Campaigns.sol\":3264:3291  req.recipient.transfer(amt) */\n              swap1\n              dup2\n              iszero\n              mul\n              swap1\n              mload(0x40)\n              0x00\n              mload(0x40)\n              dup1\n              dup4\n              sub\n              dup2\n              dup6\n              dup9\n              dup9\n              call\n              swap4\n              pop\n              pop\n              pop\n              pop\n              iszero\n              dup1\n              iszero\n              tag_89\n              jumpi\n              returndatasize\n              0x00\n              dup1\n              returndatacopy\n              revert(0x00, returndatasize)\n            tag_89:\n              pop\n                /* \"Campaigns.sol\":3318:3322  true */\n              0x01\n                /* \"Campaigns.sol\":3302:3305  req */\n              dup3\n                /* \"Campaigns.sol\":3302:3315  req.completed */\n              0x04\n              add\n              0x00\n                /* \"Campaigns.sol\":3302:3322  req.completed = true */\n              0x0100\n              exp\n              dup2\n              sload\n              dup2\n              0xff\n              mul\n              not\n              and\n              swap1\n              dup4\n              iszero\n              iszero\n              mul\n              or\n              swap1\n              sstore\n              pop\n                /* \"Campaigns.sol\":3079:3329  {... */\n              pop\n              pop\n                /* \"Campaigns.sol\":3007:3329  function finalizeRequest(uint reqIndex) public only_manager_can_execute {... */\n              pop\n              jump\t// out\n                /* \"Campaigns.sol\":898:991  function getBalance() public view returns (uint){... */\n            tag_24:\n                /* \"Campaigns.sol\":941:945  uint */\n              0x00\n                /* \"Campaigns.sol\":963:984  address(this).balance */\n              selfbalance\n                /* \"Campaigns.sol\":956:984  return address(this).balance */\n              swap1\n              pop\n                /* \"Campaigns.sol\":898:991  function getBalance() public view returns (uint){... */\n              swap1\n              jump\t// out\n                /* \"Campaigns.sol\":350:395  mapping (address => bool) public contributors */\n            tag_31:\n              mstore(0x20, 0x02)\n              dup1\n              0x00\n              mstore\n              keccak256(0x00, 0x40)\n              0x00\n              swap2\n              pop\n              sload\n              swap1\n              0x0100\n              exp\n              swap1\n              div\n              0xff\n              and\n              dup2\n              jump\t// out\n                /* \"Campaigns.sol\":1265:1358  function getRequestsCount() public view returns(uint) {... */\n            tag_36:\n                /* \"Campaigns.sol\":1313:1317  uint */\n              0x00\n                /* \"Campaigns.sol\":1336:1344  requests */\n              dup1\n                /* \"Campaigns.sol\":1336:1351  requests.length */\n              dup1\n              sload\n              swap1\n              pop\n                /* \"Campaigns.sol\":1329:1351  return requests.length */\n              swap1\n              pop\n                /* \"Campaigns.sol\":1265:1358  function getRequestsCount() public view returns(uint) {... */\n              swap1\n              jump\t// out\n                /* \"Campaigns.sol\":322:344  address public manager */\n            tag_40:\n              0x01\n              0x00\n              swap1\n              sload\n              swap1\n              0x0100\n              exp\n              swap1\n              div\n              0xffffffffffffffffffffffffffffffffffffffff\n              and\n              dup2\n              jump\t// out\n                /* \"Campaigns.sol\":583:678  function getMinContribution() public view returns (uint){... */\n            tag_45:\n                /* \"Campaigns.sol\":634:638  uint */\n              0x00\n                /* \"Campaigns.sol\":656:671  minContribution */\n              sload(0x03)\n                /* \"Campaigns.sol\":649:671  return minContribution */\n              swap1\n              pop\n                /* \"Campaigns.sol\":583:678  function getMinContribution() public view returns (uint){... */\n              swap1\n              jump\t// out\n                /* \"Campaigns.sol\":290:315  Request[] public requests */\n            tag_50:\n              0x00\n              dup2\n              dup2\n              sload\n              dup2\n              lt\n              tag_93\n              jumpi\n              0x00\n              dup1\n              revert\n            tag_93:\n              swap1\n              0x00\n              mstore\n              keccak256(0x00, 0x20)\n              swap1\n              0x06\n              mul\n              add\n              0x00\n              swap2\n              pop\n              swap1\n              pop\n              dup1\n              0x00\n              add\n              dup1\n              sload\n              tag_95\n              swap1\n              tag_96\n              jump\t// in\n            tag_95:\n              dup1\n              0x1f\n              add\n              0x20\n              dup1\n              swap2\n              div\n              mul\n              0x20\n              add\n              mload(0x40)\n              swap1\n              dup2\n              add\n              0x40\n              mstore\n              dup1\n              swap3\n              swap2\n              swap1\n              dup2\n              dup2\n              mstore\n              0x20\n              add\n              dup3\n              dup1\n              sload\n              tag_97\n              swap1\n              tag_96\n              jump\t// in\n            tag_97:\n              dup1\n              iszero\n              tag_98\n              jumpi\n              dup1\n              0x1f\n              lt\n              tag_99\n              jumpi\n              0x0100\n              dup1\n              dup4\n              sload\n              div\n              mul\n              dup4\n              mstore\n              swap2\n              0x20\n              add\n              swap2\n              jump(tag_98)\n            tag_99:\n              dup3\n              add\n              swap2\n              swap1\n              0x00\n              mstore\n              keccak256(0x00, 0x20)\n              swap1\n            tag_100:\n              dup2\n              sload\n              dup2\n              mstore\n              swap1\n              0x01\n              add\n              swap1\n              0x20\n              add\n              dup1\n              dup4\n              gt\n              tag_100\n              jumpi\n              dup3\n              swap1\n              sub\n              0x1f\n              and\n              dup3\n              add\n              swap2\n            tag_98:\n              pop\n              pop\n              pop\n              pop\n              pop\n              swap1\n              dup1\n              0x01\n              add\n              sload\n              swap1\n              dup1\n              0x02\n              add\n              0x00\n              swap1\n              sload\n              swap1\n              0x0100\n              exp\n              swap1\n              div\n              0xffffffffffffffffffffffffffffffffffffffff\n              and\n              swap1\n              dup1\n              0x04\n              add\n              0x00\n              swap1\n              sload\n              swap1\n              0x0100\n              exp\n              swap1\n              div\n              0xff\n              and\n              swap1\n              dup1\n              0x05\n              add\n              sload\n              swap1\n              pop\n              dup6\n              jump\t// out\n                /* \"Campaigns.sol\":1911:2496  function createRequest(string memory desc, uint val, address payable rcpnt ) public only_manager_can_execute{... */\n            tag_57:\n                /* \"Campaigns.sol\":3403:3410  manager */\n              0x01\n              0x00\n              swap1\n              sload\n              swap1\n              0x0100\n              exp\n              swap1\n              div\n              0xffffffffffffffffffffffffffffffffffffffff\n              and\n                /* \"Campaigns.sol\":3389:3410  msg.sender == manager */\n              0xffffffffffffffffffffffffffffffffffffffff\n              and\n                /* \"Campaigns.sol\":3389:3399  msg.sender */\n              caller\n                /* \"Campaigns.sol\":3389:3410  msg.sender == manager */\n              0xffffffffffffffffffffffffffffffffffffffff\n              and\n              eq\n                /* \"Campaigns.sol\":3381:3411  require(msg.sender == manager) */\n              tag_102\n              jumpi\n              0x00\n              dup1\n              revert\n            tag_102:\n                /* \"Campaigns.sol\":2265:2284  Request storage req */\n              0x00\n                /* \"Campaigns.sol\":2287:2295  requests */\n              dup1\n                /* \"Campaigns.sol\":2287:2302  requests.push() */\n              0x01\n              dup2\n              0x01\n              dup2\n              sload\n              add\n              dup1\n              dup3\n              sstore\n              dup1\n              swap2\n              pop\n              pop\n              sub\n              swap1\n              0x00\n              mstore\n              keccak256(0x00, 0x20)\n              swap1\n              0x06\n              mul\n              add\n                /* \"Campaigns.sol\":2265:2302  Request storage req = requests.push() */\n              swap1\n              pop\n                /* \"Campaigns.sol\":2330:2334  desc */\n              dup4\n                /* \"Campaigns.sol\":2312:2315  req */\n              dup2\n                /* \"Campaigns.sol\":2312:2327  req.description */\n              0x00\n              add\n                /* \"Campaigns.sol\":2312:2334  req.description = desc */\n              swap1\n              dup1\n              mload\n              swap1\n              0x20\n              add\n              swap1\n              tag_105\n              swap3\n              swap2\n              swap1\n              tag_106\n              jump\t// in\n            tag_105:\n              pop\n                /* \"Campaigns.sol\":2356:2359  val */\n              dup3\n                /* \"Campaigns.sol\":2344:2347  req */\n              dup2\n                /* \"Campaigns.sol\":2344:2353  req.value */\n              0x01\n              add\n                /* \"Campaigns.sol\":2344:2359  req.value = val */\n              dup2\n              swap1\n              sstore\n              pop\n                /* \"Campaigns.sol\":2385:2390  rcpnt */\n              dup2\n                /* \"Campaigns.sol\":2369:2372  req */\n              dup2\n                /* \"Campaigns.sol\":2369:2382  req.recipient */\n              0x02\n              add\n              0x00\n                /* \"Campaigns.sol\":2369:2390  req.recipient = rcpnt */\n              0x0100\n              exp\n              dup2\n              sload\n              dup2\n              0xffffffffffffffffffffffffffffffffffffffff\n              mul\n              not\n              and\n              swap1\n              dup4\n              0xffffffffffffffffffffffffffffffffffffffff\n              and\n              mul\n              or\n              swap1\n              sstore\n              pop\n                /* \"Campaigns.sol\":2416:2421  false */\n              0x00\n                /* \"Campaigns.sol\":2400:2403  req */\n              dup2\n                /* \"Campaigns.sol\":2400:2413  req.completed */\n              0x04\n              add\n              0x00\n                /* \"Campaigns.sol\":2400:2421  req.completed = false */\n              0x0100\n              exp\n              dup2\n              sload\n              dup2\n              0xff\n              mul\n              not\n              and\n              swap1\n              dup4\n              iszero\n              iszero\n              mul\n              or\n              swap1\n              sstore\n              pop\n                /* \"Campaigns.sol\":2452:2453  0 */\n              0x00\n                /* \"Campaigns.sol\":2431:2434  req */\n              dup2\n                /* \"Campaigns.sol\":2431:2449  req.approvalsCount */\n              0x05\n              add\n                /* \"Campaigns.sol\":2431:2453  req.approvalsCount = 0 */\n              dup2\n              swap1\n              sstore\n              pop\n                /* \"Campaigns.sol\":2019:2496  {... */\n              pop\n                /* \"Campaigns.sol\":1911:2496  function createRequest(string memory desc, uint val, address payable rcpnt ) public only_manager_can_execute{... */\n              pop\n              pop\n              pop\n              jump\t// out\n                /* \"Campaigns.sol\":997:1259  function getCampaignSummary() public view returns(uint, uint, uint, uint, address) {... */\n            tag_60:\n                /* \"Campaigns.sol\":1047:1051  uint */\n              0x00\n                /* \"Campaigns.sol\":1053:1057  uint */\n              dup1\n                /* \"Campaigns.sol\":1059:1063  uint */\n              0x00\n                /* \"Campaigns.sol\":1065:1069  uint */\n              dup1\n                /* \"Campaigns.sol\":1071:1078  address */\n              0x00\n                /* \"Campaigns.sol\":1111:1126  minContribution */\n              sload(0x03)\n                /* \"Campaigns.sol\":1140:1161  address(this).balance */\n              selfbalance\n                /* \"Campaigns.sol\":1175:1183  requests */\n              0x00\n                /* \"Campaigns.sol\":1175:1190  requests.length */\n              dup1\n              sload\n              swap1\n              pop\n                /* \"Campaigns.sol\":1204:1221  contributorsCount */\n              sload(0x04)\n                /* \"Campaigns.sol\":1235:1242  manager */\n              0x01\n              0x00\n              swap1\n              sload\n              swap1\n              0x0100\n              exp\n              swap1\n              div\n              0xffffffffffffffffffffffffffffffffffffffff\n              and\n                /* \"Campaigns.sol\":1090:1252  return (... */\n              swap5\n              pop\n              swap5\n              pop\n              swap5\n              pop\n              swap5\n              pop\n              swap5\n              pop\n                /* \"Campaigns.sol\":997:1259  function getCampaignSummary() public view returns(uint, uint, uint, uint, address) {... */\n              swap1\n              swap2\n              swap3\n              swap4\n              swap5\n              jump\t// out\n                /* \"Campaigns.sol\":401:428  uint public minContribution */\n            tag_65:\n              sload(0x03)\n              dup2\n              jump\t// out\n                /* \"Campaigns.sol\":684:766  function getManager() public view returns (address){... */\n            tag_69:\n                /* \"Campaigns.sol\":727:734  address */\n              0x00\n                /* \"Campaigns.sol\":752:759  manager */\n              0x01\n              0x00\n              swap1\n              sload\n              swap1\n              0x0100\n              exp\n              swap1\n              div\n              0xffffffffffffffffffffffffffffffffffffffff\n              and\n                /* \"Campaigns.sol\":745:759  return manager */\n              swap1\n              pop\n                /* \"Campaigns.sol\":684:766  function getManager() public view returns (address){... */\n              swap1\n              jump\t// out\n                /* \"Campaigns.sol\":1556:1905  function contribute() public payable {... */\n            tag_72:\n                /* \"Campaigns.sol\":1624:1639  minContribution */\n              sload(0x03)\n                /* \"Campaigns.sol\":1611:1620  msg.value */\n              callvalue\n                /* \"Campaigns.sol\":1611:1639  msg.value >= minContribution */\n              lt\n              iszero\n                /* \"Campaigns.sol\":1603:1640  require(msg.value >= minContribution) */\n              tag_110\n              jumpi\n              0x00\n              dup1\n              revert\n            tag_110:\n                /* \"Campaigns.sol\":1861:1865  true */\n              0x01\n                /* \"Campaigns.sol\":1834:1846  contributors */\n              0x02\n                /* \"Campaigns.sol\":1834:1858  contributors[msg.sender] */\n              0x00\n                /* \"Campaigns.sol\":1847:1857  msg.sender */\n              caller\n                /* \"Campaigns.sol\":1834:1858  contributors[msg.sender] */\n              0xffffffffffffffffffffffffffffffffffffffff\n              and\n              0xffffffffffffffffffffffffffffffffffffffff\n              and\n              dup2\n              mstore\n              0x20\n              add\n              swap1\n              dup2\n              mstore\n              0x20\n              add\n              0x00\n              keccak256\n              0x00\n                /* \"Campaigns.sol\":1834:1865  contributors[msg.sender] = true */\n              0x0100\n              exp\n              dup2\n              sload\n              dup2\n              0xff\n              mul\n              not\n              and\n              swap1\n              dup4\n              iszero\n              iszero\n              mul\n              or\n              swap1\n              sstore\n              pop\n                /* \"Campaigns.sol\":1875:1892  contributorsCount */\n              0x04\n              0x00\n                /* \"Campaigns.sol\":1875:1894  contributorsCount++ */\n              dup2\n              sload\n              dup1\n              swap3\n              swap2\n              swap1\n              tag_111\n              swap1\n              tag_112\n              jump\t// in\n            tag_111:\n              swap2\n              swap1\n              pop\n              sstore\n              pop\n                /* \"Campaigns.sol\":1556:1905  function contribute() public payable {... */\n              jump\t// out\n                /* \"Campaigns.sol\":2502:3001  function approveRequest(uint reqIndex) public {... */\n            tag_76:\n                /* \"Campaigns.sol\":2614:2626  contributors */\n              0x02\n                /* \"Campaigns.sol\":2614:2638  contributors[msg.sender] */\n              0x00\n                /* \"Campaigns.sol\":2627:2637  msg.sender */\n              caller\n                /* \"Campaigns.sol\":2614:2638  contributors[msg.sender] */\n              0xffffffffffffffffffffffffffffffffffffffff\n              and\n              0xffffffffffffffffffffffffffffffffffffffff\n              and\n              dup2\n              mstore\n              0x20\n              add\n              swap1\n              dup2\n              mstore\n              0x20\n              add\n              0x00\n              keccak256\n              0x00\n              swap1\n              sload\n              swap1\n              0x0100\n              exp\n              swap1\n              div\n              0xff\n              and\n                /* \"Campaigns.sol\":2606:2639  require(contributors[msg.sender]) */\n              tag_114\n              jumpi\n              0x00\n              dup1\n              revert\n            tag_114:\n                /* \"Campaigns.sol\":2727:2746  Request storage req */\n              0x00\n                /* \"Campaigns.sol\":2749:2757  requests */\n              dup1\n                /* \"Campaigns.sol\":2758:2766  reqIndex */\n              dup3\n                /* \"Campaigns.sol\":2749:2767  requests[reqIndex] */\n              dup2\n              sload\n              dup2\n              lt\n              tag_115\n              jumpi\n              tag_116\n              tag_82\n              jump\t// in\n            tag_116:\n            tag_115:\n              swap1\n              0x00\n              mstore\n              keccak256(0x00, 0x20)\n              swap1\n              0x06\n              mul\n              add\n                /* \"Campaigns.sol\":2727:2767  Request storage req = requests[reqIndex] */\n              swap1\n              pop\n                /* \"Campaigns.sol\":2786:2789  req */\n              dup1\n                /* \"Campaigns.sol\":2786:2799  req.completed */\n              0x04\n              add\n              0x00\n              swap1\n              sload\n              swap1\n              0x0100\n              exp\n              swap1\n              div\n              0xff\n              and\n                /* \"Campaigns.sol\":2785:2799  !req.completed */\n              iszero\n                /* \"Campaigns.sol\":2777:2800  require(!req.completed) */\n              tag_118\n              jumpi\n              0x00\n              dup1\n              revert\n            tag_118:\n                /* \"Campaigns.sol\":2891:2894  req */\n              dup1\n                /* \"Campaigns.sol\":2891:2904  req.approvers */\n              0x03\n              add\n                /* \"Campaigns.sol\":2891:2916  req.approvers[msg.sender] */\n              0x00\n                /* \"Campaigns.sol\":2905:2915  msg.sender */\n              caller\n                /* \"Campaigns.sol\":2891:2916  req.approvers[msg.sender] */\n              0xffffffffffffffffffffffffffffffffffffffff\n              and\n              0xffffffffffffffffffffffffffffffffffffffff\n              and\n              dup2\n              mstore\n              0x20\n              add\n              swap1\n              dup2\n              mstore\n              0x20\n              add\n              0x00\n              keccak256\n              0x00\n              swap1\n              sload\n              swap1\n              0x0100\n              exp\n              swap1\n              div\n              0xff\n              and\n                /* \"Campaigns.sol\":2890:2916  !req.approvers[msg.sender] */\n              iszero\n                /* \"Campaigns.sol\":2882:2917  require(!req.approvers[msg.sender]) */\n              tag_119\n              jumpi\n              0x00\n              dup1\n              revert\n            tag_119:\n                /* \"Campaigns.sol\":2960:2964  true */\n              0x01\n                /* \"Campaigns.sol\":2932:2935  req */\n              dup2\n                /* \"Campaigns.sol\":2932:2945  req.approvers */\n              0x03\n              add\n                /* \"Campaigns.sol\":2932:2957  req.approvers[msg.sender] */\n              0x00\n                /* \"Campaigns.sol\":2946:2956  msg.sender */\n              caller\n                /* \"Campaigns.sol\":2932:2957  req.approvers[msg.sender] */\n              0xffffffffffffffffffffffffffffffffffffffff\n              and\n              0xffffffffffffffffffffffffffffffffffffffff\n              and\n              dup2\n              mstore\n              0x20\n              add\n              swap1\n              dup2\n              mstore\n              0x20\n              add\n              0x00\n              keccak256\n              0x00\n                /* \"Campaigns.sol\":2932:2964  req.approvers[msg.sender] = true */\n              0x0100\n              exp\n              dup2\n              sload\n              dup2\n              0xff\n              mul\n              not\n              and\n              swap1\n              dup4\n              iszero\n              iszero\n              mul\n              or\n              swap1\n              sstore\n              pop\n                /* \"Campaigns.sol\":2974:2977  req */\n              dup1\n                /* \"Campaigns.sol\":2974:2992  req.approvalsCount */\n              0x05\n              add\n              0x00\n                /* \"Campaigns.sol\":2974:2994  req.approvalsCount++ */\n              dup2\n              sload\n              dup1\n              swap3\n              swap2\n              swap1\n              tag_120\n              swap1\n              tag_112\n              jump\t// in\n            tag_120:\n              swap2\n              swap1\n              pop\n              sstore\n              pop\n                /* \"Campaigns.sol\":2548:3001  {... */\n              pop\n                /* \"Campaigns.sol\":2502:3001  function approveRequest(uint reqIndex) public {... */\n              pop\n              jump\t// out\n            tag_106:\n              dup3\n              dup1\n              sload\n              tag_121\n              swap1\n              tag_96\n              jump\t// in\n            tag_121:\n              swap1\n              0x00\n              mstore\n              keccak256(0x00, 0x20)\n              swap1\n              0x1f\n              add\n              0x20\n              swap1\n              div\n              dup2\n              add\n              swap3\n              dup3\n              tag_123\n              jumpi\n              0x00\n              dup6\n              sstore\n              jump(tag_122)\n            tag_123:\n              dup3\n              0x1f\n              lt\n              tag_124\n              jumpi\n              dup1\n              mload\n              not(0xff)\n              and\n              dup4\n              dup1\n              add\n              or\n              dup6\n              sstore\n              jump(tag_122)\n            tag_124:\n              dup3\n              dup1\n              add\n              0x01\n              add\n              dup6\n              sstore\n              dup3\n              iszero\n              tag_122\n              jumpi\n              swap2\n              dup3\n              add\n            tag_125:\n              dup3\n              dup2\n              gt\n              iszero\n              tag_126\n              jumpi\n              dup3\n              mload\n              dup3\n              sstore\n              swap2\n              0x20\n              add\n              swap2\n              swap1\n              0x01\n              add\n              swap1\n              jump(tag_125)\n            tag_126:\n            tag_122:\n              pop\n              swap1\n              pop\n              tag_127\n              swap2\n              swap1\n              tag_128\n              jump\t// in\n            tag_127:\n              pop\n              swap1\n              jump\t// out\n            tag_128:\n            tag_129:\n              dup1\n              dup3\n              gt\n              iszero\n              tag_130\n              jumpi\n              0x00\n              dup2\n              0x00\n              swap1\n              sstore\n              pop\n              0x01\n              add\n              jump(tag_129)\n            tag_130:\n              pop\n              swap1\n              jump\t// out\n                /* \"#utility.yul\":7:82   */\n            tag_131:\n                /* \"#utility.yul\":40:46   */\n              0x00\n                /* \"#utility.yul\":73:75   */\n              0x40\n                /* \"#utility.yul\":67:76   */\n              mload\n                /* \"#utility.yul\":57:76   */\n              swap1\n              pop\n                /* \"#utility.yul\":7:82   */\n              swap1\n              jump\t// out\n                /* \"#utility.yul\":88:205   */\n            tag_132:\n                /* \"#utility.yul\":197:198   */\n              0x00\n                /* \"#utility.yul\":194:195   */\n              dup1\n                /* \"#utility.yul\":187:199   */\n              revert\n                /* \"#utility.yul\":211:328   */\n            tag_133:\n                /* \"#utility.yul\":320:321   */\n              0x00\n                /* \"#utility.yul\":317:318   */\n              dup1\n                /* \"#utility.yul\":310:322   */\n              revert\n                /* \"#utility.yul\":334:411   */\n            tag_134:\n                /* \"#utility.yul\":371:378   */\n              0x00\n                /* \"#utility.yul\":400:405   */\n              dup2\n                /* \"#utility.yul\":389:405   */\n              swap1\n              pop\n                /* \"#utility.yul\":334:411   */\n              swap2\n              swap1\n              pop\n              jump\t// out\n                /* \"#utility.yul\":417:539   */\n            tag_135:\n                /* \"#utility.yul\":490:514   */\n              tag_172\n                /* \"#utility.yul\":508:513   */\n              dup2\n                /* \"#utility.yul\":490:514   */\n              tag_134\n              jump\t// in\n            tag_172:\n                /* \"#utility.yul\":483:488   */\n              dup2\n                /* \"#utility.yul\":480:515   */\n              eq\n                /* \"#utility.yul\":470:533   */\n              tag_173\n              jumpi\n                /* \"#utility.yul\":529:530   */\n              0x00\n                /* \"#utility.yul\":526:527   */\n              dup1\n                /* \"#utility.yul\":519:531   */\n              revert\n                /* \"#utility.yul\":470:533   */\n            tag_173:\n                /* \"#utility.yul\":417:539   */\n              pop\n              jump\t// out\n                /* \"#utility.yul\":545:684   */\n            tag_136:\n                /* \"#utility.yul\":591:596   */\n              0x00\n                /* \"#utility.yul\":629:635   */\n              dup2\n                /* \"#utility.yul\":616:636   */\n              calldataload\n                /* \"#utility.yul\":607:636   */\n              swap1\n              pop\n                /* \"#utility.yul\":645:678   */\n              tag_175\n                /* \"#utility.yul\":672:677   */\n              dup2\n                /* \"#utility.yul\":645:678   */\n              tag_135\n              jump\t// in\n            tag_175:\n                /* \"#utility.yul\":545:684   */\n              swap3\n              swap2\n              pop\n              pop\n              jump\t// out\n                /* \"#utility.yul\":690:1019   */\n            tag_20:\n                /* \"#utility.yul\":749:755   */\n              0x00\n                /* \"#utility.yul\":798:800   */\n              0x20\n                /* \"#utility.yul\":786:795   */\n              dup3\n                /* \"#utility.yul\":777:784   */\n              dup5\n                /* \"#utility.yul\":773:796   */\n              sub\n                /* \"#utility.yul\":769:801   */\n              slt\n                /* \"#utility.yul\":766:885   */\n              iszero\n              tag_177\n              jumpi\n                /* \"#utility.yul\":804:883   */\n              tag_178\n              tag_132\n              jump\t// in\n            tag_178:\n                /* \"#utility.yul\":766:885   */\n            tag_177:\n                /* \"#utility.yul\":924:925   */\n              0x00\n                /* \"#utility.yul\":949:1002   */\n              tag_179\n                /* \"#utility.yul\":994:1001   */\n              dup5\n                /* \"#utility.yul\":985:991   */\n              dup3\n                /* \"#utility.yul\":974:983   */\n              dup6\n                /* \"#utility.yul\":970:992   */\n              add\n                /* \"#utility.yul\":949:1002   */\n              tag_136\n              jump\t// in\n            tag_179:\n                /* \"#utility.yul\":939:1002   */\n              swap2\n              pop\n                /* \"#utility.yul\":895:1012   */\n              pop\n                /* \"#utility.yul\":690:1019   */\n              swap3\n              swap2\n              pop\n              pop\n              jump\t// out\n                /* \"#utility.yul\":1025:1143   */\n            tag_137:\n                /* \"#utility.yul\":1112:1136   */\n              tag_181\n                /* \"#utility.yul\":1130:1135   */\n              dup2\n                /* \"#utility.yul\":1112:1136   */\n              tag_134\n              jump\t// in\n            tag_181:\n                /* \"#utility.yul\":1107:1110   */\n              dup3\n                /* \"#utility.yul\":1100:1137   */\n              mstore\n                /* \"#utility.yul\":1025:1143   */\n              pop\n              pop\n              jump\t// out\n                /* \"#utility.yul\":1149:1371   */\n            tag_26:\n                /* \"#utility.yul\":1242:1246   */\n              0x00\n                /* \"#utility.yul\":1280:1282   */\n              0x20\n                /* \"#utility.yul\":1269:1278   */\n              dup3\n                /* \"#utility.yul\":1265:1283   */\n              add\n                /* \"#utility.yul\":1257:1283   */\n              swap1\n              pop\n                /* \"#utility.yul\":1293:1364   */\n              tag_183\n                /* \"#utility.yul\":1361:1362   */\n              0x00\n                /* \"#utility.yul\":1350:1359   */\n              dup4\n                /* \"#utility.yul\":1346:1363   */\n              add\n                /* \"#utility.yul\":1337:1343   */\n              dup5\n                /* \"#utility.yul\":1293:1364   */\n              tag_137\n              jump\t// in\n            tag_183:\n                /* \"#utility.yul\":1149:1371   */\n              swap3\n              swap2\n              pop\n              pop\n              jump\t// out\n                /* \"#utility.yul\":1377:1503   */\n            tag_138:\n                /* \"#utility.yul\":1414:1421   */\n              0x00\n                /* \"#utility.yul\":1454:1496   */\n              0xffffffffffffffffffffffffffffffffffffffff\n                /* \"#utility.yul\":1447:1452   */\n              dup3\n                /* \"#utility.yul\":1443:1497   */\n              and\n                /* \"#utility.yul\":1432:1497   */\n              swap1\n              pop\n                /* \"#utility.yul\":1377:1503   */\n              swap2\n              swap1\n              pop\n              jump\t// out\n                /* \"#utility.yul\":1509:1605   */\n            tag_139:\n                /* \"#utility.yul\":1546:1553   */\n              0x00\n                /* \"#utility.yul\":1575:1599   */\n              tag_186\n                /* \"#utility.yul\":1593:1598   */\n              dup3\n                /* \"#utility.yul\":1575:1599   */\n              tag_138\n              jump\t// in\n            tag_186:\n                /* \"#utility.yul\":1564:1599   */\n              swap1\n              pop\n                /* \"#utility.yul\":1509:1605   */\n              swap2\n              swap1\n              pop\n              jump\t// out\n                /* \"#utility.yul\":1611:1733   */\n            tag_140:\n                /* \"#utility.yul\":1684:1708   */\n              tag_188\n                /* \"#utility.yul\":1702:1707   */\n              dup2\n                /* \"#utility.yul\":1684:1708   */\n              tag_139\n              jump\t// in\n            tag_188:\n                /* \"#utility.yul\":1677:1682   */\n              dup2\n                /* \"#utility.yul\":1674:1709   */\n              eq\n                /* \"#utility.yul\":1664:1727   */\n              tag_189\n              jumpi\n                /* \"#utility.yul\":1723:1724   */\n              0x00\n                /* \"#utility.yul\":1720:1721   */\n              dup1\n                /* \"#utility.yul\":1713:1725   */\n              revert\n                /* \"#utility.yul\":1664:1727   */\n            tag_189:\n                /* \"#utility.yul\":1611:1733   */\n              pop\n              jump\t// out\n                /* \"#utility.yul\":1739:1878   */\n            tag_141:\n                /* \"#utility.yul\":1785:1790   */\n              0x00\n                /* \"#utility.yul\":1823:1829   */\n              dup2\n                /* \"#utility.yul\":1810:1830   */\n              calldataload\n                /* \"#utility.yul\":1801:1830   */\n              swap1\n              pop\n                /* \"#utility.yul\":1839:1872   */\n              tag_191\n                /* \"#utility.yul\":1866:1871   */\n              dup2\n                /* \"#utility.yul\":1839:1872   */\n              tag_140\n              jump\t// in\n            tag_191:\n                /* \"#utility.yul\":1739:1878   */\n              swap3\n              swap2\n              pop\n              pop\n              jump\t// out\n                /* \"#utility.yul\":1884:2213   */\n            tag_30:\n                /* \"#utility.yul\":1943:1949   */\n              0x00\n                /* \"#utility.yul\":1992:1994   */\n              0x20\n                /* \"#utility.yul\":1980:1989   */\n              dup3\n                /* \"#utility.yul\":1971:1978   */\n              dup5\n                /* \"#utility.yul\":1967:1990   */\n              sub\n                /* \"#utility.yul\":1963:1995   */\n              slt\n                /* \"#utility.yul\":1960:2079   */\n              iszero\n              tag_193\n              jumpi\n                /* \"#utility.yul\":1998:2077   */\n              tag_194\n              tag_132\n              jump\t// in\n            tag_194:\n                /* \"#utility.yul\":1960:2079   */\n            tag_193:\n                /* \"#utility.yul\":2118:2119   */\n              0x00\n                /* \"#utility.yul\":2143:2196   */\n              tag_195\n                /* \"#utility.yul\":2188:2195   */\n              dup5\n                /* \"#utility.yul\":2179:2185   */\n              dup3\n                /* \"#utility.yul\":2168:2177   */\n              dup6\n                /* \"#utility.yul\":2164:2186   */\n              add\n                /* \"#utility.yul\":2143:2196   */\n              tag_141\n              jump\t// in\n            tag_195:\n                /* \"#utility.yul\":2133:2196   */\n              swap2\n              pop\n                /* \"#utility.yul\":2089:2206   */\n              pop\n                /* \"#utility.yul\":1884:2213   */\n              swap3\n              swap2\n              pop\n              pop\n              jump\t// out\n                /* \"#utility.yul\":2219:2309   */\n            tag_142:\n                /* \"#utility.yul\":2253:2260   */\n              0x00\n                /* \"#utility.yul\":2296:2301   */\n              dup2\n                /* \"#utility.yul\":2289:2302   */\n              iszero\n                /* \"#utility.yul\":2282:2303   */\n              iszero\n                /* \"#utility.yul\":2271:2303   */\n              swap1\n              pop\n                /* \"#utility.yul\":2219:2309   */\n              swap2\n              swap1\n              pop\n              jump\t// out\n                /* \"#utility.yul\":2315:2424   */\n            tag_143:\n                /* \"#utility.yul\":2396:2417   */\n              tag_198\n                /* \"#utility.yul\":2411:2416   */\n              dup2\n                /* \"#utility.yul\":2396:2417   */\n              tag_142\n              jump\t// in\n            tag_198:\n                /* \"#utility.yul\":2391:2394   */\n              dup3\n                /* \"#utility.yul\":2384:2418   */\n              mstore\n                /* \"#utility.yul\":2315:2424   */\n              pop\n              pop\n              jump\t// out\n                /* \"#utility.yul\":2430:2640   */\n            tag_33:\n                /* \"#utility.yul\":2517:2521   */\n              0x00\n                /* \"#utility.yul\":2555:2557   */\n              0x20\n                /* \"#utility.yul\":2544:2553   */\n              dup3\n                /* \"#utility.yul\":2540:2558   */\n              add\n                /* \"#utility.yul\":2532:2558   */\n              swap1\n              pop\n                /* \"#utility.yul\":2568:2633   */\n              tag_200\n                /* \"#utility.yul\":2630:2631   */\n              0x00\n                /* \"#utility.yul\":2619:2628   */\n              dup4\n                /* \"#utility.yul\":2615:2632   */\n              add\n                /* \"#utility.yul\":2606:2612   */\n              dup5\n                /* \"#utility.yul\":2568:2633   */\n              tag_143\n              jump\t// in\n            tag_200:\n                /* \"#utility.yul\":2430:2640   */\n              swap3\n              swap2\n              pop\n              pop\n              jump\t// out\n                /* \"#utility.yul\":2646:2764   */\n            tag_144:\n                /* \"#utility.yul\":2733:2757   */\n              tag_202\n                /* \"#utility.yul\":2751:2756   */\n              dup2\n                /* \"#utility.yul\":2733:2757   */\n              tag_139\n              jump\t// in\n            tag_202:\n                /* \"#utility.yul\":2728:2731   */\n              dup3\n                /* \"#utility.yul\":2721:2758   */\n              mstore\n                /* \"#utility.yul\":2646:2764   */\n              pop\n              pop\n              jump\t// out\n                /* \"#utility.yul\":2770:2992   */\n            tag_42:\n                /* \"#utility.yul\":2863:2867   */\n              0x00\n                /* \"#utility.yul\":2901:2903   */\n              0x20\n                /* \"#utility.yul\":2890:2899   */\n              dup3\n                /* \"#utility.yul\":2886:2904   */\n              add\n                /* \"#utility.yul\":2878:2904   */\n              swap1\n              pop\n                /* \"#utility.yul\":2914:2985   */\n              tag_204\n                /* \"#utility.yul\":2982:2983   */\n              0x00\n                /* \"#utility.yul\":2971:2980   */\n              dup4\n                /* \"#utility.yul\":2967:2984   */\n              add\n                /* \"#utility.yul\":2958:2964   */\n              dup5\n                /* \"#utility.yul\":2914:2985   */\n              tag_144\n              jump\t// in\n            tag_204:\n                /* \"#utility.yul\":2770:2992   */\n              swap3\n              swap2\n              pop\n              pop\n              jump\t// out\n                /* \"#utility.yul\":2998:3097   */\n            tag_145:\n                /* \"#utility.yul\":3050:3056   */\n              0x00\n                /* \"#utility.yul\":3084:3089   */\n              dup2\n                /* \"#utility.yul\":3078:3090   */\n              mload\n                /* \"#utility.yul\":3068:3090   */\n              swap1\n              pop\n                /* \"#utility.yul\":2998:3097   */\n              swap2\n              swap1\n              pop\n              jump\t// out\n                /* \"#utility.yul\":3103:3272   */\n            tag_146:\n                /* \"#utility.yul\":3187:3198   */\n              0x00\n                /* \"#utility.yul\":3221:3227   */\n              dup3\n                /* \"#utility.yul\":3216:3219   */\n              dup3\n                /* \"#utility.yul\":3209:3228   */\n              mstore\n                /* \"#utility.yul\":3261:3265   */\n              0x20\n                /* \"#utility.yul\":3256:3259   */\n              dup3\n                /* \"#utility.yul\":3252:3266   */\n              add\n                /* \"#utility.yul\":3237:3266   */\n              swap1\n              pop\n                /* \"#utility.yul\":3103:3272   */\n              swap3\n              swap2\n              pop\n              pop\n              jump\t// out\n                /* \"#utility.yul\":3278:3585   */\n            tag_147:\n                /* \"#utility.yul\":3346:3347   */\n              0x00\n                /* \"#utility.yul\":3356:3469   */\n            tag_208:\n                /* \"#utility.yul\":3370:3376   */\n              dup4\n                /* \"#utility.yul\":3367:3368   */\n              dup2\n                /* \"#utility.yul\":3364:3377   */\n              lt\n                /* \"#utility.yul\":3356:3469   */\n              iszero\n              tag_210\n              jumpi\n                /* \"#utility.yul\":3455:3456   */\n              dup1\n                /* \"#utility.yul\":3450:3453   */\n              dup3\n                /* \"#utility.yul\":3446:3457   */\n              add\n                /* \"#utility.yul\":3440:3458   */\n              mload\n                /* \"#utility.yul\":3436:3437   */\n              dup2\n                /* \"#utility.yul\":3431:3434   */\n              dup5\n                /* \"#utility.yul\":3427:3438   */\n              add\n                /* \"#utility.yul\":3420:3459   */\n              mstore\n                /* \"#utility.yul\":3392:3394   */\n              0x20\n                /* \"#utility.yul\":3389:3390   */\n              dup2\n                /* \"#utility.yul\":3385:3395   */\n              add\n                /* \"#utility.yul\":3380:3395   */\n              swap1\n              pop\n                /* \"#utility.yul\":3356:3469   */\n              jump(tag_208)\n            tag_210:\n                /* \"#utility.yul\":3487:3493   */\n              dup4\n                /* \"#utility.yul\":3484:3485   */\n              dup2\n                /* \"#utility.yul\":3481:3494   */\n              gt\n                /* \"#utility.yul\":3478:3579   */\n              iszero\n              tag_211\n              jumpi\n                /* \"#utility.yul\":3567:3568   */\n              0x00\n                /* \"#utility.yul\":3558:3564   */\n              dup5\n                /* \"#utility.yul\":3553:3556   */\n              dup5\n                /* \"#utility.yul\":3549:3565   */\n              add\n                /* \"#utility.yul\":3542:3569   */\n              mstore\n                /* \"#utility.yul\":3478:3579   */\n            tag_211:\n                /* \"#utility.yul\":3327:3585   */\n              pop\n                /* \"#utility.yul\":3278:3585   */\n              pop\n              pop\n              pop\n              jump\t// out\n                /* \"#utility.yul\":3591:3693   */\n            tag_148:\n                /* \"#utility.yul\":3632:3638   */\n              0x00\n                /* \"#utility.yul\":3683:3685   */\n              0x1f\n                /* \"#utility.yul\":3679:3686   */\n              not\n                /* \"#utility.yul\":3674:3676   */\n              0x1f\n                /* \"#utility.yul\":3667:3672   */\n              dup4\n                /* \"#utility.yul\":3663:3677   */\n              add\n                /* \"#utility.yul\":3659:3687   */\n              and\n                /* \"#utility.yul\":3649:3687   */\n              swap1\n              pop\n                /* \"#utility.yul\":3591:3693   */\n              swap2\n              swap1\n              pop\n              jump\t// out\n                /* \"#utility.yul\":3699:4063   */\n            tag_149:\n                /* \"#utility.yul\":3787:3790   */\n              0x00\n                /* \"#utility.yul\":3815:3854   */\n              tag_214\n                /* \"#utility.yul\":3848:3853   */\n              dup3\n                /* \"#utility.yul\":3815:3854   */\n              tag_145\n              jump\t// in\n            tag_214:\n                /* \"#utility.yul\":3870:3941   */\n              tag_215\n                /* \"#utility.yul\":3934:3940   */\n              dup2\n                /* \"#utility.yul\":3929:3932   */\n              dup6\n                /* \"#utility.yul\":3870:3941   */\n              tag_146\n              jump\t// in\n            tag_215:\n                /* \"#utility.yul\":3863:3941   */\n              swap4\n              pop\n                /* \"#utility.yul\":3950:4002   */\n              tag_216\n                /* \"#utility.yul\":3995:4001   */\n              dup2\n                /* \"#utility.yul\":3990:3993   */\n              dup6\n                /* \"#utility.yul\":3983:3987   */\n              0x20\n                /* \"#utility.yul\":3976:3981   */\n              dup7\n                /* \"#utility.yul\":3972:3988   */\n              add\n                /* \"#utility.yul\":3950:4002   */\n              tag_147\n              jump\t// in\n            tag_216:\n                /* \"#utility.yul\":4027:4056   */\n              tag_217\n                /* \"#utility.yul\":4049:4055   */\n              dup2\n                /* \"#utility.yul\":4027:4056   */\n              tag_148\n              jump\t// in\n            tag_217:\n                /* \"#utility.yul\":4022:4025   */\n              dup5\n                /* \"#utility.yul\":4018:4057   */\n              add\n                /* \"#utility.yul\":4011:4057   */\n              swap2\n              pop\n                /* \"#utility.yul\":3791:4063   */\n              pop\n                /* \"#utility.yul\":3699:4063   */\n              swap3\n              swap2\n              pop\n              pop\n              jump\t// out\n                /* \"#utility.yul\":4069:4173   */\n            tag_150:\n                /* \"#utility.yul\":4114:4121   */\n              0x00\n                /* \"#utility.yul\":4143:4167   */\n              tag_219\n                /* \"#utility.yul\":4161:4166   */\n              dup3\n                /* \"#utility.yul\":4143:4167   */\n              tag_138\n              jump\t// in\n            tag_219:\n                /* \"#utility.yul\":4132:4167   */\n              swap1\n              pop\n                /* \"#utility.yul\":4069:4173   */\n              swap2\n              swap1\n              pop\n              jump\t// out\n                /* \"#utility.yul\":4179:4321   */\n            tag_151:\n                /* \"#utility.yul\":4282:4314   */\n              tag_221\n                /* \"#utility.yul\":4308:4313   */\n              dup2\n                /* \"#utility.yul\":4282:4314   */\n              tag_150\n              jump\t// in\n            tag_221:\n                /* \"#utility.yul\":4277:4280   */\n              dup3\n                /* \"#utility.yul\":4270:4315   */\n              mstore\n                /* \"#utility.yul\":4179:4321   */\n              pop\n              pop\n              jump\t// out\n                /* \"#utility.yul\":4327:5102   */\n            tag_52:\n                /* \"#utility.yul\":4562:4566   */\n              0x00\n                /* \"#utility.yul\":4600:4603   */\n              0xa0\n                /* \"#utility.yul\":4589:4598   */\n              dup3\n                /* \"#utility.yul\":4585:4604   */\n              add\n                /* \"#utility.yul\":4577:4604   */\n              swap1\n              pop\n                /* \"#utility.yul\":4650:4659   */\n              dup2\n                /* \"#utility.yul\":4644:4648   */\n              dup2\n                /* \"#utility.yul\":4640:4660   */\n              sub\n                /* \"#utility.yul\":4636:4637   */\n              0x00\n                /* \"#utility.yul\":4625:4634   */\n              dup4\n                /* \"#utility.yul\":4621:4638   */\n              add\n                /* \"#utility.yul\":4614:4661   */\n              mstore\n                /* \"#utility.yul\":4678:4756   */\n              tag_223\n                /* \"#utility.yul\":4751:4755   */\n              dup2\n                /* \"#utility.yul\":4742:4748   */\n              dup9\n                /* \"#utility.yul\":4678:4756   */\n              tag_149\n              jump\t// in\n            tag_223:\n                /* \"#utility.yul\":4670:4756   */\n              swap1\n              pop\n                /* \"#utility.yul\":4766:4838   */\n              tag_224\n                /* \"#utility.yul\":4834:4836   */\n              0x20\n                /* \"#utility.yul\":4823:4832   */\n              dup4\n                /* \"#utility.yul\":4819:4837   */\n              add\n                /* \"#utility.yul\":4810:4816   */\n              dup8\n                /* \"#utility.yul\":4766:4838   */\n              tag_137\n              jump\t// in\n            tag_224:\n                /* \"#utility.yul\":4848:4936   */\n              tag_225\n                /* \"#utility.yul\":4932:4934   */\n              0x40\n                /* \"#utility.yul\":4921:4930   */\n              dup4\n                /* \"#utility.yul\":4917:4935   */\n              add\n                /* \"#utility.yul\":4908:4914   */\n              dup7\n                /* \"#utility.yul\":4848:4936   */\n              tag_151\n              jump\t// in\n            tag_225:\n                /* \"#utility.yul\":4946:5012   */\n              tag_226\n                /* \"#utility.yul\":5008:5010   */\n              0x60\n                /* \"#utility.yul\":4997:5006   */\n              dup4\n                /* \"#utility.yul\":4993:5011   */\n              add\n                /* \"#utility.yul\":4984:4990   */\n              dup6\n                /* \"#utility.yul\":4946:5012   */\n              tag_143\n              jump\t// in\n            tag_226:\n                /* \"#utility.yul\":5022:5095   */\n              tag_227\n                /* \"#utility.yul\":5090:5093   */\n              0x80\n                /* \"#utility.yul\":5079:5088   */\n              dup4\n                /* \"#utility.yul\":5075:5094   */\n              add\n                /* \"#utility.yul\":5066:5072   */\n              dup5\n                /* \"#utility.yul\":5022:5095   */\n              tag_137\n              jump\t// in\n            tag_227:\n                /* \"#utility.yul\":4327:5102   */\n              swap7\n              swap6\n              pop\n              pop\n              pop\n              pop\n              pop\n              pop\n              jump\t// out\n                /* \"#utility.yul\":5108:5225   */\n            tag_152:\n                /* \"#utility.yul\":5217:5218   */\n              0x00\n                /* \"#utility.yul\":5214:5215   */\n              dup1\n                /* \"#utility.yul\":5207:5219   */\n              revert\n                /* \"#utility.yul\":5231:5348   */\n            tag_153:\n                /* \"#utility.yul\":5340:5341   */\n              0x00\n                /* \"#utility.yul\":5337:5338   */\n              dup1\n                /* \"#utility.yul\":5330:5342   */\n              revert\n                /* \"#utility.yul\":5354:5534   */\n            tag_154:\n                /* \"#utility.yul\":5402:5479   */\n              0x4e487b7100000000000000000000000000000000000000000000000000000000\n                /* \"#utility.yul\":5399:5400   */\n              0x00\n                /* \"#utility.yul\":5392:5480   */\n              mstore\n                /* \"#utility.yul\":5499:5503   */\n              0x41\n                /* \"#utility.yul\":5496:5497   */\n              0x04\n                /* \"#utility.yul\":5489:5504   */\n              mstore\n                /* \"#utility.yul\":5523:5527   */\n              0x24\n                /* \"#utility.yul\":5520:5521   */\n              0x00\n                /* \"#utility.yul\":5513:5528   */\n              revert\n                /* \"#utility.yul\":5540:5821   */\n            tag_155:\n                /* \"#utility.yul\":5623:5650   */\n              tag_232\n                /* \"#utility.yul\":5645:5649   */\n              dup3\n                /* \"#utility.yul\":5623:5650   */\n              tag_148\n              jump\t// in\n            tag_232:\n                /* \"#utility.yul\":5615:5621   */\n              dup2\n                /* \"#utility.yul\":5611:5651   */\n              add\n                /* \"#utility.yul\":5753:5759   */\n              dup2\n                /* \"#utility.yul\":5741:5751   */\n              dup2\n                /* \"#utility.yul\":5738:5760   */\n              lt\n                /* \"#utility.yul\":5717:5735   */\n              0xffffffffffffffff\n                /* \"#utility.yul\":5705:5715   */\n              dup3\n                /* \"#utility.yul\":5702:5736   */\n              gt\n                /* \"#utility.yul\":5699:5761   */\n              or\n                /* \"#utility.yul\":5696:5784   */\n              iszero\n              tag_233\n              jumpi\n                /* \"#utility.yul\":5764:5782   */\n              tag_234\n              tag_154\n              jump\t// in\n            tag_234:\n                /* \"#utility.yul\":5696:5784   */\n            tag_233:\n                /* \"#utility.yul\":5804:5814   */\n              dup1\n                /* \"#utility.yul\":5800:5802   */\n              0x40\n                /* \"#utility.yul\":5793:5815   */\n              mstore\n                /* \"#utility.yul\":5583:5821   */\n              pop\n                /* \"#utility.yul\":5540:5821   */\n              pop\n              pop\n              jump\t// out\n                /* \"#utility.yul\":5827:5956   */\n            tag_156:\n                /* \"#utility.yul\":5861:5867   */\n              0x00\n                /* \"#utility.yul\":5888:5908   */\n              tag_236\n              tag_131\n              jump\t// in\n            tag_236:\n                /* \"#utility.yul\":5878:5908   */\n              swap1\n              pop\n                /* \"#utility.yul\":5917:5950   */\n              tag_237\n                /* \"#utility.yul\":5945:5949   */\n              dup3\n                /* \"#utility.yul\":5937:5943   */\n              dup3\n                /* \"#utility.yul\":5917:5950   */\n              tag_155\n              jump\t// in\n            tag_237:\n                /* \"#utility.yul\":5827:5956   */\n              swap2\n              swap1\n              pop\n              jump\t// out\n                /* \"#utility.yul\":5962:6270   */\n            tag_157:\n                /* \"#utility.yul\":6024:6028   */\n              0x00\n                /* \"#utility.yul\":6114:6132   */\n              0xffffffffffffffff\n                /* \"#utility.yul\":6106:6112   */\n              dup3\n                /* \"#utility.yul\":6103:6133   */\n              gt\n                /* \"#utility.yul\":6100:6156   */\n              iszero\n              tag_239\n              jumpi\n                /* \"#utility.yul\":6136:6154   */\n              tag_240\n              tag_154\n              jump\t// in\n            tag_240:\n                /* \"#utility.yul\":6100:6156   */\n            tag_239:\n                /* \"#utility.yul\":6174:6203   */\n              tag_241\n                /* \"#utility.yul\":6196:6202   */\n              dup3\n                /* \"#utility.yul\":6174:6203   */\n              tag_148\n              jump\t// in\n            tag_241:\n                /* \"#utility.yul\":6166:6203   */\n              swap1\n              pop\n                /* \"#utility.yul\":6258:6262   */\n              0x20\n                /* \"#utility.yul\":6252:6256   */\n              dup2\n                /* \"#utility.yul\":6248:6263   */\n              add\n                /* \"#utility.yul\":6240:6263   */\n              swap1\n              pop\n                /* \"#utility.yul\":5962:6270   */\n              swap2\n              swap1\n              pop\n              jump\t// out\n                /* \"#utility.yul\":6276:6430   */\n            tag_158:\n                /* \"#utility.yul\":6360:6366   */\n              dup3\n                /* \"#utility.yul\":6355:6358   */\n              dup2\n                /* \"#utility.yul\":6350:6353   */\n              dup4\n                /* \"#utility.yul\":6337:6367   */\n              calldatacopy\n                /* \"#utility.yul\":6422:6423   */\n              0x00\n                /* \"#utility.yul\":6413:6419   */\n              dup4\n                /* \"#utility.yul\":6408:6411   */\n              dup4\n                /* \"#utility.yul\":6404:6420   */\n              add\n                /* \"#utility.yul\":6397:6424   */\n              mstore\n                /* \"#utility.yul\":6276:6430   */\n              pop\n              pop\n              pop\n              jump\t// out\n                /* \"#utility.yul\":6436:6848   */\n            tag_159:\n                /* \"#utility.yul\":6514:6519   */\n              0x00\n                /* \"#utility.yul\":6539:6605   */\n              tag_244\n                /* \"#utility.yul\":6555:6604   */\n              tag_245\n                /* \"#utility.yul\":6597:6603   */\n              dup5\n                /* \"#utility.yul\":6555:6604   */\n              tag_157\n              jump\t// in\n            tag_245:\n                /* \"#utility.yul\":6539:6605   */\n              tag_156\n              jump\t// in\n            tag_244:\n                /* \"#utility.yul\":6530:6605   */\n              swap1\n              pop\n                /* \"#utility.yul\":6628:6634   */\n              dup3\n                /* \"#utility.yul\":6621:6626   */\n              dup2\n                /* \"#utility.yul\":6614:6635   */\n              mstore\n                /* \"#utility.yul\":6666:6670   */\n              0x20\n                /* \"#utility.yul\":6659:6664   */\n              dup2\n                /* \"#utility.yul\":6655:6671   */\n              add\n                /* \"#utility.yul\":6704:6707   */\n              dup5\n                /* \"#utility.yul\":6695:6701   */\n              dup5\n                /* \"#utility.yul\":6690:6693   */\n              dup5\n                /* \"#utility.yul\":6686:6702   */\n              add\n                /* \"#utility.yul\":6683:6708   */\n              gt\n                /* \"#utility.yul\":6680:6792   */\n              iszero\n              tag_246\n              jumpi\n                /* \"#utility.yul\":6711:6790   */\n              tag_247\n              tag_153\n              jump\t// in\n            tag_247:\n                /* \"#utility.yul\":6680:6792   */\n            tag_246:\n                /* \"#utility.yul\":6801:6842   */\n              tag_248\n                /* \"#utility.yul\":6835:6841   */\n              dup5\n                /* \"#utility.yul\":6830:6833   */\n              dup3\n                /* \"#utility.yul\":6825:6828   */\n              dup6\n                /* \"#utility.yul\":6801:6842   */\n              tag_158\n              jump\t// in\n            tag_248:\n                /* \"#utility.yul\":6520:6848   */\n              pop\n                /* \"#utility.yul\":6436:6848   */\n              swap4\n              swap3\n              pop\n              pop\n              pop\n              jump\t// out\n                /* \"#utility.yul\":6868:7208   */\n            tag_160:\n                /* \"#utility.yul\":6924:6929   */\n              0x00\n                /* \"#utility.yul\":6973:6976   */\n              dup3\n                /* \"#utility.yul\":6966:6970   */\n              0x1f\n                /* \"#utility.yul\":6958:6964   */\n              dup4\n                /* \"#utility.yul\":6954:6971   */\n              add\n                /* \"#utility.yul\":6950:6977   */\n              slt\n                /* \"#utility.yul\":6940:7062   */\n              tag_250\n              jumpi\n                /* \"#utility.yul\":6981:7060   */\n              tag_251\n              tag_152\n              jump\t// in\n            tag_251:\n                /* \"#utility.yul\":6940:7062   */\n            tag_250:\n                /* \"#utility.yul\":7098:7104   */\n              dup2\n                /* \"#utility.yul\":7085:7105   */\n              calldataload\n                /* \"#utility.yul\":7123:7202   */\n              tag_252\n                /* \"#utility.yul\":7198:7201   */\n              dup5\n                /* \"#utility.yul\":7190:7196   */\n              dup3\n                /* \"#utility.yul\":7183:7187   */\n              0x20\n                /* \"#utility.yul\":7175:7181   */\n              dup7\n                /* \"#utility.yul\":7171:7188   */\n              add\n                /* \"#utility.yul\":7123:7202   */\n              tag_159\n              jump\t// in\n            tag_252:\n                /* \"#utility.yul\":7114:7202   */\n              swap2\n              pop\n                /* \"#utility.yul\":6930:7208   */\n              pop\n                /* \"#utility.yul\":6868:7208   */\n              swap3\n              swap2\n              pop\n              pop\n              jump\t// out\n                /* \"#utility.yul\":7214:7352   */\n            tag_161:\n                /* \"#utility.yul\":7295:7327   */\n              tag_254\n                /* \"#utility.yul\":7321:7326   */\n              dup2\n                /* \"#utility.yul\":7295:7327   */\n              tag_150\n              jump\t// in\n            tag_254:\n                /* \"#utility.yul\":7288:7293   */\n              dup2\n                /* \"#utility.yul\":7285:7328   */\n              eq\n                /* \"#utility.yul\":7275:7346   */\n              tag_255\n              jumpi\n                /* \"#utility.yul\":7342:7343   */\n              0x00\n                /* \"#utility.yul\":7339:7340   */\n              dup1\n                /* \"#utility.yul\":7332:7344   */\n              revert\n                /* \"#utility.yul\":7275:7346   */\n            tag_255:\n                /* \"#utility.yul\":7214:7352   */\n              pop\n              jump\t// out\n                /* \"#utility.yul\":7358:7513   */\n            tag_162:\n                /* \"#utility.yul\":7412:7417   */\n              0x00\n                /* \"#utility.yul\":7450:7456   */\n              dup2\n                /* \"#utility.yul\":7437:7457   */\n              calldataload\n                /* \"#utility.yul\":7428:7457   */\n              swap1\n              pop\n                /* \"#utility.yul\":7466:7507   */\n              tag_257\n                /* \"#utility.yul\":7501:7506   */\n              dup2\n                /* \"#utility.yul\":7466:7507   */\n              tag_161\n              jump\t// in\n            tag_257:\n                /* \"#utility.yul\":7358:7513   */\n              swap3\n              swap2\n              pop\n              pop\n              jump\t// out\n                /* \"#utility.yul\":7519:8334   */\n            tag_56:\n                /* \"#utility.yul\":7614:7620   */\n              0x00\n                /* \"#utility.yul\":7622:7628   */\n              dup1\n                /* \"#utility.yul\":7630:7636   */\n              0x00\n                /* \"#utility.yul\":7679:7681   */\n              0x60\n                /* \"#utility.yul\":7667:7676   */\n              dup5\n                /* \"#utility.yul\":7658:7665   */\n              dup7\n                /* \"#utility.yul\":7654:7677   */\n              sub\n                /* \"#utility.yul\":7650:7682   */\n              slt\n                /* \"#utility.yul\":7647:7766   */\n              iszero\n              tag_259\n              jumpi\n                /* \"#utility.yul\":7685:7764   */\n              tag_260\n              tag_132\n              jump\t// in\n            tag_260:\n                /* \"#utility.yul\":7647:7766   */\n            tag_259:\n                /* \"#utility.yul\":7833:7834   */\n              0x00\n                /* \"#utility.yul\":7822:7831   */\n              dup5\n                /* \"#utility.yul\":7818:7835   */\n              add\n                /* \"#utility.yul\":7805:7836   */\n              calldataload\n                /* \"#utility.yul\":7863:7881   */\n              0xffffffffffffffff\n                /* \"#utility.yul\":7855:7861   */\n              dup2\n                /* \"#utility.yul\":7852:7882   */\n              gt\n                /* \"#utility.yul\":7849:7966   */\n              iszero\n              tag_261\n              jumpi\n                /* \"#utility.yul\":7885:7964   */\n              tag_262\n              tag_133\n              jump\t// in\n            tag_262:\n                /* \"#utility.yul\":7849:7966   */\n            tag_261:\n                /* \"#utility.yul\":7990:8053   */\n              tag_263\n                /* \"#utility.yul\":8045:8052   */\n              dup7\n                /* \"#utility.yul\":8036:8042   */\n              dup3\n                /* \"#utility.yul\":8025:8034   */\n              dup8\n                /* \"#utility.yul\":8021:8043   */\n              add\n                /* \"#utility.yul\":7990:8053   */\n              tag_160\n              jump\t// in\n            tag_263:\n                /* \"#utility.yul\":7980:8053   */\n              swap4\n              pop\n                /* \"#utility.yul\":7776:8063   */\n              pop\n                /* \"#utility.yul\":8102:8104   */\n              0x20\n                /* \"#utility.yul\":8128:8181   */\n              tag_264\n                /* \"#utility.yul\":8173:8180   */\n              dup7\n                /* \"#utility.yul\":8164:8170   */\n              dup3\n                /* \"#utility.yul\":8153:8162   */\n              dup8\n                /* \"#utility.yul\":8149:8171   */\n              add\n                /* \"#utility.yul\":8128:8181   */\n              tag_136\n              jump\t// in\n            tag_264:\n                /* \"#utility.yul\":8118:8181   */\n              swap3\n              pop\n                /* \"#utility.yul\":8073:8191   */\n              pop\n                /* \"#utility.yul\":8230:8232   */\n              0x40\n                /* \"#utility.yul\":8256:8317   */\n              tag_265\n                /* \"#utility.yul\":8309:8316   */\n              dup7\n                /* \"#utility.yul\":8300:8306   */\n              dup3\n                /* \"#utility.yul\":8289:8298   */\n              dup8\n                /* \"#utility.yul\":8285:8307   */\n              add\n                /* \"#utility.yul\":8256:8317   */\n              tag_162\n              jump\t// in\n            tag_265:\n                /* \"#utility.yul\":8246:8317   */\n              swap2\n              pop\n                /* \"#utility.yul\":8201:8327   */\n              pop\n                /* \"#utility.yul\":7519:8334   */\n              swap3\n              pop\n              swap3\n              pop\n              swap3\n              jump\t// out\n                /* \"#utility.yul\":8340:9004   */\n            tag_62:\n                /* \"#utility.yul\":8545:8549   */\n              0x00\n                /* \"#utility.yul\":8583:8586   */\n              0xa0\n                /* \"#utility.yul\":8572:8581   */\n              dup3\n                /* \"#utility.yul\":8568:8587   */\n              add\n                /* \"#utility.yul\":8560:8587   */\n              swap1\n              pop\n                /* \"#utility.yul\":8597:8668   */\n              tag_267\n                /* \"#utility.yul\":8665:8666   */\n              0x00\n                /* \"#utility.yul\":8654:8663   */\n              dup4\n                /* \"#utility.yul\":8650:8667   */\n              add\n                /* \"#utility.yul\":8641:8647   */\n              dup9\n                /* \"#utility.yul\":8597:8668   */\n              tag_137\n              jump\t// in\n            tag_267:\n                /* \"#utility.yul\":8678:8750   */\n              tag_268\n                /* \"#utility.yul\":8746:8748   */\n              0x20\n                /* \"#utility.yul\":8735:8744   */\n              dup4\n                /* \"#utility.yul\":8731:8749   */\n              add\n                /* \"#utility.yul\":8722:8728   */\n              dup8\n                /* \"#utility.yul\":8678:8750   */\n              tag_137\n              jump\t// in\n            tag_268:\n                /* \"#utility.yul\":8760:8832   */\n              tag_269\n                /* \"#utility.yul\":8828:8830   */\n              0x40\n                /* \"#utility.yul\":8817:8826   */\n              dup4\n                /* \"#utility.yul\":8813:8831   */\n              add\n                /* \"#utility.yul\":8804:8810   */\n              dup7\n                /* \"#utility.yul\":8760:8832   */\n              tag_137\n              jump\t// in\n            tag_269:\n                /* \"#utility.yul\":8842:8914   */\n              tag_270\n                /* \"#utility.yul\":8910:8912   */\n              0x60\n                /* \"#utility.yul\":8899:8908   */\n              dup4\n                /* \"#utility.yul\":8895:8913   */\n              add\n                /* \"#utility.yul\":8886:8892   */\n              dup6\n                /* \"#utility.yul\":8842:8914   */\n              tag_137\n              jump\t// in\n            tag_270:\n                /* \"#utility.yul\":8924:8997   */\n              tag_271\n                /* \"#utility.yul\":8992:8995   */\n              0x80\n                /* \"#utility.yul\":8981:8990   */\n              dup4\n                /* \"#utility.yul\":8977:8996   */\n              add\n                /* \"#utility.yul\":8968:8974   */\n              dup5\n                /* \"#utility.yul\":8924:8997   */\n              tag_144\n              jump\t// in\n            tag_271:\n                /* \"#utility.yul\":8340:9004   */\n              swap7\n              swap6\n              pop\n              pop\n              pop\n              pop\n              pop\n              pop\n              jump\t// out\n                /* \"#utility.yul\":9010:9190   */\n            tag_82:\n                /* \"#utility.yul\":9058:9135   */\n              0x4e487b7100000000000000000000000000000000000000000000000000000000\n                /* \"#utility.yul\":9055:9056   */\n              0x00\n                /* \"#utility.yul\":9048:9136   */\n              mstore\n                /* \"#utility.yul\":9155:9159   */\n              0x32\n                /* \"#utility.yul\":9152:9153   */\n              0x04\n                /* \"#utility.yul\":9145:9160   */\n              mstore\n                /* \"#utility.yul\":9179:9183   */\n              0x24\n                /* \"#utility.yul\":9176:9177   */\n              0x00\n                /* \"#utility.yul\":9169:9184   */\n              revert\n                /* \"#utility.yul\":9196:9376   */\n            tag_163:\n                /* \"#utility.yul\":9244:9321   */\n              0x4e487b7100000000000000000000000000000000000000000000000000000000\n                /* \"#utility.yul\":9241:9242   */\n              0x00\n                /* \"#utility.yul\":9234:9322   */\n              mstore\n                /* \"#utility.yul\":9341:9345   */\n              0x12\n                /* \"#utility.yul\":9338:9339   */\n              0x04\n                /* \"#utility.yul\":9331:9346   */\n              mstore\n                /* \"#utility.yul\":9365:9369   */\n              0x24\n                /* \"#utility.yul\":9362:9363   */\n              0x00\n                /* \"#utility.yul\":9355:9370   */\n              revert\n                /* \"#utility.yul\":9382:9562   */\n            tag_164:\n                /* \"#utility.yul\":9430:9507   */\n              0x4e487b7100000000000000000000000000000000000000000000000000000000\n                /* \"#utility.yul\":9427:9428   */\n              0x00\n                /* \"#utility.yul\":9420:9508   */\n              mstore\n                /* \"#utility.yul\":9527:9531   */\n              0x11\n                /* \"#utility.yul\":9524:9525   */\n              0x04\n                /* \"#utility.yul\":9517:9532   */\n              mstore\n                /* \"#utility.yul\":9551:9555   */\n              0x24\n                /* \"#utility.yul\":9548:9549   */\n              0x00\n                /* \"#utility.yul\":9541:9556   */\n              revert\n                /* \"#utility.yul\":9568:9753   */\n            tag_86:\n                /* \"#utility.yul\":9608:9609   */\n              0x00\n                /* \"#utility.yul\":9625:9645   */\n              tag_276\n                /* \"#utility.yul\":9643:9644   */\n              dup3\n                /* \"#utility.yul\":9625:9645   */\n              tag_134\n              jump\t// in\n            tag_276:\n                /* \"#utility.yul\":9620:9645   */\n              swap2\n              pop\n                /* \"#utility.yul\":9659:9679   */\n              tag_277\n                /* \"#utility.yul\":9677:9678   */\n              dup4\n                /* \"#utility.yul\":9659:9679   */\n              tag_134\n              jump\t// in\n            tag_277:\n                /* \"#utility.yul\":9654:9679   */\n              swap3\n              pop\n                /* \"#utility.yul\":9698:9699   */\n              dup3\n                /* \"#utility.yul\":9688:9723   */\n              tag_278\n              jumpi\n                /* \"#utility.yul\":9703:9721   */\n              tag_279\n              tag_163\n              jump\t// in\n            tag_279:\n                /* \"#utility.yul\":9688:9723   */\n            tag_278:\n                /* \"#utility.yul\":9745:9746   */\n              dup3\n                /* \"#utility.yul\":9742:9743   */\n              dup3\n                /* \"#utility.yul\":9738:9747   */\n              div\n                /* \"#utility.yul\":9733:9747   */\n              swap1\n              pop\n                /* \"#utility.yul\":9568:9753   */\n              swap3\n              swap2\n              pop\n              pop\n              jump\t// out\n                /* \"#utility.yul\":9759:9939   */\n            tag_165:\n                /* \"#utility.yul\":9807:9884   */\n              0x4e487b7100000000000000000000000000000000000000000000000000000000\n                /* \"#utility.yul\":9804:9805   */\n              0x00\n                /* \"#utility.yul\":9797:9885   */\n              mstore\n                /* \"#utility.yul\":9904:9908   */\n              0x22\n                /* \"#utility.yul\":9901:9902   */\n              0x04\n                /* \"#utility.yul\":9894:9909   */\n              mstore\n                /* \"#utility.yul\":9928:9932   */\n              0x24\n                /* \"#utility.yul\":9925:9926   */\n              0x00\n                /* \"#utility.yul\":9918:9933   */\n              revert\n                /* \"#utility.yul\":9945:10265   */\n            tag_96:\n                /* \"#utility.yul\":9989:9995   */\n              0x00\n                /* \"#utility.yul\":10026:10027   */\n              0x02\n                /* \"#utility.yul\":10020:10024   */\n              dup3\n                /* \"#utility.yul\":10016:10028   */\n              div\n                /* \"#utility.yul\":10006:10028   */\n              swap1\n              pop\n                /* \"#utility.yul\":10073:10074   */\n              0x01\n                /* \"#utility.yul\":10067:10071   */\n              dup3\n                /* \"#utility.yul\":10063:10075   */\n              and\n                /* \"#utility.yul\":10094:10112   */\n              dup1\n                /* \"#utility.yul\":10084:10165   */\n              tag_282\n              jumpi\n                /* \"#utility.yul\":10150:10154   */\n              0x7f\n                /* \"#utility.yul\":10142:10148   */\n              dup3\n                /* \"#utility.yul\":10138:10155   */\n              and\n                /* \"#utility.yul\":10128:10155   */\n              swap2\n              pop\n                /* \"#utility.yul\":10084:10165   */\n            tag_282:\n                /* \"#utility.yul\":10212:10214   */\n              0x20\n                /* \"#utility.yul\":10204:10210   */\n              dup3\n                /* \"#utility.yul\":10201:10215   */\n              lt\n                /* \"#utility.yul\":10181:10199   */\n              dup2\n                /* \"#utility.yul\":10178:10216   */\n              eq\n                /* \"#utility.yul\":10175:10259   */\n              iszero\n              tag_283\n              jumpi\n                /* \"#utility.yul\":10231:10249   */\n              tag_284\n              tag_165\n              jump\t// in\n            tag_284:\n                /* \"#utility.yul\":10175:10259   */\n            tag_283:\n                /* \"#utility.yul\":9996:10265   */\n              pop\n                /* \"#utility.yul\":9945:10265   */\n              swap2\n              swap1\n              pop\n              jump\t// out\n                /* \"#utility.yul\":10271:10504   */\n            tag_112:\n                /* \"#utility.yul\":10310:10313   */\n              0x00\n                /* \"#utility.yul\":10333:10357   */\n              tag_286\n                /* \"#utility.yul\":10351:10356   */\n              dup3\n                /* \"#utility.yul\":10333:10357   */\n              tag_134\n              jump\t// in\n            tag_286:\n                /* \"#utility.yul\":10324:10357   */\n              swap2\n              pop\n                /* \"#utility.yul\":10379:10445   */\n              0xffffffffffffffffffffffffffffffffffffffffffffffffffffffffffffffff\n                /* \"#utility.yul\":10372:10377   */\n              dup3\n                /* \"#utility.yul\":10369:10446   */\n              eq\n                /* \"#utility.yul\":10366:10469   */\n              iszero\n              tag_287\n              jumpi\n                /* \"#utility.yul\":10449:10467   */\n              tag_288\n              tag_164\n              jump\t// in\n            tag_288:\n                /* \"#utility.yul\":10366:10469   */\n            tag_287:\n                /* \"#utility.yul\":10496:10497   */\n              0x01\n                /* \"#utility.yul\":10489:10494   */\n              dup3\n                /* \"#utility.yul\":10485:10498   */\n              add\n                /* \"#utility.yul\":10478:10498   */\n              swap1\n              pop\n                /* \"#utility.yul\":10271:10504   */\n              swap2\n              swap1\n              pop\n              jump\t// out\n\n            auxdata: 0xa2646970667358221220c6f841084826f8e03a80b2c90254633e503b799b8c441ba9e79b665a59d239ef64736f6c634300080c0033\n        }\n    }\n\n    auxdata: 0xa2646970667358221220c5e7f6d23276ab526640f413f3d141ec21d3f20e5d4d7a007c393d17686e5d2764736f6c634300080c0033\n}\n","bytecode":{"linkReferences":{},"object":"608060405234801561001057600080fd5b506115de806100206000396000f3fe608060405234801561001057600080fd5b50600436106100415760003560e01c8063339d50a5146100465780637e4b95f214610076578063a3303a7514610094575b600080fd5b610060600480360381019061005b9190610266565b6100b0565b60405161006d91906102d4565b60405180910390f35b61007e6100ef565b60405161008b91906103ad565b60405180910390f35b6100ae60048036038101906100a99190610266565b61017d565b005b600081815481106100c057600080fd5b906000526020600020016000915054906101000a900473ffffffffffffffffffffffffffffffffffffffff1681565b6060600080548060200260200160405190810160405280929190818152602001828054801561017357602002820191906000526020600020905b8160009054906101000a900473ffffffffffffffffffffffffffffffffffffffff1673ffffffffffffffffffffffffffffffffffffffff1681526020019060010190808311610129575b5050505050905090565b6000813360405161018d9061021e565b6101989291906103de565b604051809103906000f0801580156101b4573d6000803e3d6000fd5b5090506000819080600181540180825580915050600190039060005260206000200160009091909190916101000a81548173ffffffffffffffffffffffffffffffffffffffff021916908373ffffffffffffffffffffffffffffffffffffffff1602179055505050565b6111a18061040883390190565b600080fd5b6000819050919050565b61024381610230565b811461024e57600080fd5b50565b6000813590506102608161023a565b92915050565b60006020828403121561027c5761027b61022b565b5b600061028a84828501610251565b91505092915050565b600073ffffffffffffffffffffffffffffffffffffffff82169050919050565b60006102be82610293565b9050919050565b6102ce816102b3565b82525050565b60006020820190506102e960008301846102c5565b92915050565b600081519050919050565b600082825260208201905092915050565b6000819050602082019050919050565b610324816102b3565b82525050565b6000610336838361031b565b60208301905092915050565b6000602082019050919050565b600061035a826102ef565b61036481856102fa565b935061036f8361030b565b8060005b838110156103a0578151610387888261032a565b975061039283610342565b925050600181019050610373565b5085935050505092915050565b600060208201905081810360008301526103c7818461034f565b905092915050565b6103d881610230565b82525050565b60006040820190506103f360008301856103cf565b61040060208301846102c5565b939250505056fe60806040523480156200001157600080fd5b50604051620011a1380380620011a183398181016040528101906200003791906200012c565b80600160006101000a81548173ffffffffffffffffffffffffffffffffffffffff021916908373ffffffffffffffffffffffffffffffffffffffff16021790555081600381905550505062000173565b600080fd5b6000819050919050565b620000a1816200008c565b8114620000ad57600080fd5b50565b600081519050620000c18162000096565b92915050565b600073ffffffffffffffffffffffffffffffffffffffff82169050919050565b6000620000f482620000c7565b9050919050565b6200010681620000e7565b81146200011257600080fd5b50565b6000815190506200012681620000fb565b92915050565b6000806040838503121562000146576200014562000087565b5b60006200015685828601620000b0565b9250506020620001698582860162000115565b9150509250929050565b61101e80620001836000396000f3fe6080604052600436106100c25760003560e01c806381d12c581161007f578063aaffadf311610059578063aaffadf314610272578063d50095841461029d578063d7bb99ba146102c8578063d7d1bbdb146102d2576100c2565b806381d12c58146101d95780638a9cfd551461021a578063a00c96d714610243576100c2565b806303441006146100c757806312065fe0146100f05780631f6d49421461011b5780633410452a14610158578063481c6a75146101835780636cff7473146101ae575b600080fd5b3480156100d357600080fd5b506100ee60048036038101906100e99190610a07565b6102fb565b005b3480156100fc57600080fd5b5061010561044a565b6040516101129190610a43565b60405180910390f35b34801561012757600080fd5b50610142600480360381019061013d9190610abc565b610452565b60405161014f9190610b04565b60405180910390f35b34801561016457600080fd5b5061016d610472565b60405161017a9190610a43565b60405180910390f35b34801561018f57600080fd5b5061019861047e565b6040516101a59190610b2e565b60405180910390f35b3480156101ba57600080fd5b506101c36104a4565b6040516101d09190610a43565b60405180910390f35b3480156101e557600080fd5b5061020060048036038101906101fb9190610a07565b6104ae565b604051610211959493929190610c03565b60405180910390f35b34801561022657600080fd5b50610241600480360381019061023c9190610dbe565b6105a9565b005b34801561024f57600080fd5b506102586106b8565b604051610269959493929190610e2d565b60405180910390f35b34801561027e57600080fd5b50610287610701565b6040516102949190610a43565b60405180910390f35b3480156102a957600080fd5b506102b2610707565b6040516102bf9190610b2e565b60405180910390f35b6102d0610731565b005b3480156102de57600080fd5b506102f960048036038101906102f49190610a07565b6107b2565b005b600160009054906101000a900473ffffffffffffffffffffffffffffffffffffffff1673ffffffffffffffffffffffffffffffffffffffff163373ffffffffffffffffffffffffffffffffffffffff161461035557600080fd5b600080828154811061036a57610369610e80565b5b906000526020600020906006020190508060040160009054906101000a900460ff161561039657600080fd5b60026004546103a59190610f0d565b8160050154116103b457600080fd5b6000816001015490508160020160009054906101000a900473ffffffffffffffffffffffffffffffffffffffff1673ffffffffffffffffffffffffffffffffffffffff166108fc829081150290604051600060405180830381858888f19350505050158015610427573d6000803e3d6000fd5b5060018260040160006101000a81548160ff021916908315150217905550505050565b600047905090565b60026020528060005260406000206000915054906101000a900460ff1681565b60008080549050905090565b600160009054906101000a900473ffffffffffffffffffffffffffffffffffffffff1681565b6000600354905090565b600081815481106104be57600080fd5b90600052602060002090600602016000915090508060000180546104e190610f6d565b80601f016020809104026020016040519081016040528092919081815260200182805461050d90610f6d565b801561055a5780601f1061052f5761010080835404028352916020019161055a565b820191906000526020600020905b81548152906001019060200180831161053d57829003601f168201915b5050505050908060010154908060020160009054906101000a900473ffffffffffffffffffffffffffffffffffffffff16908060040160009054906101000a900460ff16908060050154905085565b600160009054906101000a900473ffffffffffffffffffffffffffffffffffffffff1673ffffffffffffffffffffffffffffffffffffffff163373ffffffffffffffffffffffffffffffffffffffff161461060357600080fd5b60008060018160018154018082558091505003906000526020600020906006020190508381600001908051906020019061063e92919061091a565b50828160010181905550818160020160006101000a81548173ffffffffffffffffffffffffffffffffffffffff021916908373ffffffffffffffffffffffffffffffffffffffff16021790555060008160040160006101000a81548160ff0219169083151502179055506000816005018190555050505050565b600080600080600060035447600080549050600454600160009054906101000a900473ffffffffffffffffffffffffffffffffffffffff16945094509450945094509091929394565b60035481565b6000600160009054906101000a900473ffffffffffffffffffffffffffffffffffffffff16905090565b60035434101561074057600080fd5b6001600260003373ffffffffffffffffffffffffffffffffffffffff1673ffffffffffffffffffffffffffffffffffffffff16815260200190815260200160002060006101000a81548160ff021916908315150217905550600460008154809291906107ab90610f9f565b9190505550565b600260003373ffffffffffffffffffffffffffffffffffffffff1673ffffffffffffffffffffffffffffffffffffffff16815260200190815260200160002060009054906101000a900460ff1661080857600080fd5b600080828154811061081d5761081c610e80565b5b906000526020600020906006020190508060040160009054906101000a900460ff161561084957600080fd5b8060030160003373ffffffffffffffffffffffffffffffffffffffff1673ffffffffffffffffffffffffffffffffffffffff16815260200190815260200160002060009054906101000a900460ff16156108a257600080fd5b60018160030160003373ffffffffffffffffffffffffffffffffffffffff1673ffffffffffffffffffffffffffffffffffffffff16815260200190815260200160002060006101000a81548160ff02191690831515021790555080600501600081548092919061091190610f9f565b91905055505050565b82805461092690610f6d565b90600052602060002090601f016020900481019282610948576000855561098f565b82601f1061096157805160ff191683800117855561098f565b8280016001018555821561098f579182015b8281111561098e578251825591602001919060010190610973565b5b50905061099c91906109a0565b5090565b5b808211156109b95760008160009055506001016109a1565b5090565b6000604051905090565b600080fd5b600080fd5b6000819050919050565b6109e4816109d1565b81146109ef57600080fd5b50565b600081359050610a01816109db565b92915050565b600060208284031215610a1d57610a1c6109c7565b5b6000610a2b848285016109f2565b91505092915050565b610a3d816109d1565b82525050565b6000602082019050610a586000830184610a34565b92915050565b600073ffffffffffffffffffffffffffffffffffffffff82169050919050565b6000610a8982610a5e565b9050919050565b610a9981610a7e565b8114610aa457600080fd5b50565b600081359050610ab681610a90565b92915050565b600060208284031215610ad257610ad16109c7565b5b6000610ae084828501610aa7565b91505092915050565b60008115159050919050565b610afe81610ae9565b82525050565b6000602082019050610b196000830184610af5565b92915050565b610b2881610a7e565b82525050565b6000602082019050610b436000830184610b1f565b92915050565b600081519050919050565b600082825260208201905092915050565b60005b83811015610b83578082015181840152602081019050610b68565b83811115610b92576000848401525b50505050565b6000601f19601f8301169050919050565b6000610bb482610b49565b610bbe8185610b54565b9350610bce818560208601610b65565b610bd781610b98565b840191505092915050565b6000610bed82610a5e565b9050919050565b610bfd81610be2565b82525050565b600060a0820190508181036000830152610c1d8188610ba9565b9050610c2c6020830187610a34565b610c396040830186610bf4565b610c466060830185610af5565b610c536080830184610a34565b9695505050505050565b600080fd5b600080fd5b7f4e487b7100000000000000000000000000000000000000000000000000000000600052604160045260246000fd5b610c9f82610b98565b810181811067ffffffffffffffff82111715610cbe57610cbd610c67565b5b80604052505050565b6000610cd16109bd565b9050610cdd8282610c96565b919050565b600067ffffffffffffffff821115610cfd57610cfc610c67565b5b610d0682610b98565b9050602081019050919050565b82818337600083830152505050565b6000610d35610d3084610ce2565b610cc7565b905082815260208101848484011115610d5157610d50610c62565b5b610d5c848285610d13565b509392505050565b600082601f830112610d7957610d78610c5d565b5b8135610d89848260208601610d22565b91505092915050565b610d9b81610be2565b8114610da657600080fd5b50565b600081359050610db881610d92565b92915050565b600080600060608486031215610dd757610dd66109c7565b5b600084013567ffffffffffffffff811115610df557610df46109cc565b5b610e0186828701610d64565b9350506020610e12868287016109f2565b9250506040610e2386828701610da9565b9150509250925092565b600060a082019050610e426000830188610a34565b610e4f6020830187610a34565b610e5c6040830186610a34565b610e696060830185610a34565b610e766080830184610b1f565b9695505050505050565b7f4e487b7100000000000000000000000000000000000000000000000000000000600052603260045260246000fd5b7f4e487b7100000000000000000000000000000000000000000000000000000000600052601260045260246000fd5b7f4e487b7100000000000000000000000000000000000000000000000000000000600052601160045260246000fd5b6000610f18826109d1565b9150610f23836109d1565b925082610f3357610f32610eaf565b5b828204905092915050565b7f4e487b7100000000000000000000000000000000000000000000000000000000600052602260045260246000fd5b60006002820490506001821680610f8557607f821691505b60208210811415610f9957610f98610f3e565b5b50919050565b6000610faa826109d1565b91507fffffffffffffffffffffffffffffffffffffffffffffffffffffffffffffffff821415610fdd57610fdc610ede565b5b60018201905091905056fea2646970667358221220c6f841084826f8e03a80b2c90254633e503b799b8c441ba9e79b665a59d239ef64736f6c634300080c0033a2646970667358221220c5e7f6d23276ab526640f413f3d141ec21d3f20e5d4d7a007c393d17686e5d2764736f6c634300080c0033","opcodes":"PUSH1 0x80 PUSH1 0x40 MSTORE CALLVALUE DUP1 ISZERO PUSH2 0x10 JUMPI PUSH1 0x0 DUP1 REVERT JUMPDEST POP PUSH2 0x15DE DUP1 PUSH2 0x20 PUSH1 0x0 CODECOPY PUSH1 0x0 RETURN INVALID PUSH1 0x80 PUSH1 0x40 MSTORE CALLVALUE DUP1 ISZERO PUSH2 0x10 JUMPI PUSH1 0x0 DUP1 REVERT JUMPDEST POP PUSH1 0x4 CALLDATASIZE LT PUSH2 0x41 JUMPI PUSH1 0x0 CALLDATALOAD PUSH1 0xE0 SHR DUP1 PUSH4 0x339D50A5 EQ PUSH2 0x46 JUMPI DUP1 PUSH4 0x7E4B95F2 EQ PUSH2 0x76 JUMPI DUP1 PUSH4 0xA3303A75 EQ PUSH2 0x94 JUMPI JUMPDEST PUSH1 0x0 DUP1 REVERT JUMPDEST PUSH2 0x60 PUSH1 0x4 DUP1 CALLDATASIZE SUB DUP2 ADD SWAP1 PUSH2 0x5B SWAP2 SWAP1 PUSH2 0x266 JUMP JUMPDEST PUSH2 0xB0 JUMP JUMPDEST PUSH1 0x40 MLOAD PUSH2 0x6D SWAP2 SWAP1 PUSH2 0x2D4 JUMP JUMPDEST PUSH1 0x40 MLOAD DUP1 SWAP2 SUB SWAP1 RETURN JUMPDEST PUSH2 0x7E PUSH2 0xEF JUMP JUMPDEST PUSH1 0x40 MLOAD PUSH2 0x8B SWAP2 SWAP1 PUSH2 0x3AD JUMP JUMPDEST PUSH1 0x40 MLOAD DUP1 SWAP2 SUB SWAP1 RETURN JUMPDEST PUSH2 0xAE PUSH1 0x4 DUP1 CALLDATASIZE SUB DUP2 ADD SWAP1 PUSH2 0xA9 SWAP2 SWAP1 PUSH2 0x266 JUMP JUMPDEST PUSH2 0x17D JUMP JUMPDEST STOP JUMPDEST PUSH1 0x0 DUP2 DUP2 SLOAD DUP2 LT PUSH2 0xC0 JUMPI PUSH1 0x0 DUP1 REVERT JUMPDEST SWAP1 PUSH1 0x0 MSTORE PUSH1 0x20 PUSH1 0x0 KECCAK256 ADD PUSH1 0x0 SWAP2 POP SLOAD SWAP1 PUSH2 0x100 EXP SWAP1 DIV PUSH20 0xFFFFFFFFFFFFFFFFFFFFFFFFFFFFFFFFFFFFFFFF AND DUP2 JUMP JUMPDEST PUSH1 0x60 PUSH1 0x0 DUP1 SLOAD DUP1 PUSH1 0x20 MUL PUSH1 0x20 ADD PUSH1 0x40 MLOAD SWAP1 DUP2 ADD PUSH1 0x40 MSTORE DUP1 SWAP3 SWAP2 SWAP1 DUP2 DUP2 MSTORE PUSH1 0x20 ADD DUP3 DUP1 SLOAD DUP1 ISZERO PUSH2 0x173 JUMPI PUSH1 0x20 MUL DUP3 ADD SWAP2 SWAP1 PUSH1 0x0 MSTORE PUSH1 0x20 PUSH1 0x0 KECCAK256 SWAP1 JUMPDEST DUP2 PUSH1 0x0 SWAP1 SLOAD SWAP1 PUSH2 0x100 EXP SWAP1 DIV PUSH20 0xFFFFFFFFFFFFFFFFFFFFFFFFFFFFFFFFFFFFFFFF AND PUSH20 0xFFFFFFFFFFFFFFFFFFFFFFFFFFFFFFFFFFFFFFFF AND DUP2 MSTORE PUSH1 0x20 ADD SWAP1 PUSH1 0x1 ADD SWAP1 DUP1 DUP4 GT PUSH2 0x129 JUMPI JUMPDEST POP POP POP POP POP SWAP1 POP SWAP1 JUMP JUMPDEST PUSH1 0x0 DUP2 CALLER PUSH1 0x40 MLOAD PUSH2 0x18D SWAP1 PUSH2 0x21E JUMP JUMPDEST PUSH2 0x198 SWAP3 SWAP2 SWAP1 PUSH2 0x3DE JUMP JUMPDEST PUSH1 0x40 MLOAD DUP1 SWAP2 SUB SWAP1 PUSH1 0x0 CREATE DUP1 ISZERO DUP1 ISZERO PUSH2 0x1B4 JUMPI RETURNDATASIZE PUSH1 0x0 DUP1 RETURNDATACOPY RETURNDATASIZE PUSH1 0x0 REVERT JUMPDEST POP SWAP1 POP PUSH1 0x0 DUP2 SWAP1 DUP1 PUSH1 0x1 DUP2 SLOAD ADD DUP1 DUP3 SSTORE DUP1 SWAP2 POP POP PUSH1 0x1 SWAP1 SUB SWAP1 PUSH1 0x0 MSTORE PUSH1 0x20 PUSH1 0x0 KECCAK256 ADD PUSH1 0x0 SWAP1 SWAP2 SWAP1 SWAP2 SWAP1 SWAP2 PUSH2 0x100 EXP DUP2 SLOAD DUP2 PUSH20 0xFFFFFFFFFFFFFFFFFFFFFFFFFFFFFFFFFFFFFFFF MUL NOT AND SWAP1 DUP4 PUSH20 0xFFFFFFFFFFFFFFFFFFFFFFFFFFFFFFFFFFFFFFFF AND MUL OR SWAP1 SSTORE POP POP POP JUMP JUMPDEST PUSH2 0x11A1 DUP1 PUSH2 0x408 DUP4 CODECOPY ADD SWAP1 JUMP JUMPDEST PUSH1 0x0 DUP1 REVERT JUMPDEST PUSH1 0x0 DUP2 SWAP1 POP SWAP2 SWAP1 POP JUMP JUMPDEST PUSH2 0x243 DUP2 PUSH2 0x230 JUMP JUMPDEST DUP2 EQ PUSH2 0x24E JUMPI PUSH1 0x0 DUP1 REVERT JUMPDEST POP JUMP JUMPDEST PUSH1 0x0 DUP2 CALLDATALOAD SWAP1 POP PUSH2 0x260 DUP2 PUSH2 0x23A JUMP JUMPDEST SWAP3 SWAP2 POP POP JUMP JUMPDEST PUSH1 0x0 PUSH1 0x20 DUP3 DUP5 SUB SLT ISZERO PUSH2 0x27C JUMPI PUSH2 0x27B PUSH2 0x22B JUMP JUMPDEST JUMPDEST PUSH1 0x0 PUSH2 0x28A DUP5 DUP3 DUP6 ADD PUSH2 0x251 JUMP JUMPDEST SWAP2 POP POP SWAP3 SWAP2 POP POP JUMP JUMPDEST PUSH1 0x0 PUSH20 0xFFFFFFFFFFFFFFFFFFFFFFFFFFFFFFFFFFFFFFFF DUP3 AND SWAP1 POP SWAP2 SWAP1 POP JUMP JUMPDEST PUSH1 0x0 PUSH2 0x2BE DUP3 PUSH2 0x293 JUMP JUMPDEST SWAP1 POP SWAP2 SWAP1 POP JUMP JUMPDEST PUSH2 0x2CE DUP2 PUSH2 0x2B3 JUMP JUMPDEST DUP3 MSTORE POP POP JUMP JUMPDEST PUSH1 0x0 PUSH1 0x20 DUP3 ADD SWAP1 POP PUSH2 0x2E9 PUSH1 0x0 DUP4 ADD DUP5 PUSH2 0x2C5 JUMP JUMPDEST SWAP3 SWAP2 POP POP JUMP JUMPDEST PUSH1 0x0 DUP2 MLOAD SWAP1 POP SWAP2 SWAP1 POP JUMP JUMPDEST PUSH1 0x0 DUP3 DUP3 MSTORE PUSH1 0x20 DUP3 ADD SWAP1 POP SWAP3 SWAP2 POP POP JUMP JUMPDEST PUSH1 0x0 DUP2 SWAP1 POP PUSH1 0x20 DUP3 ADD SWAP1 POP SWAP2 SWAP1 POP JUMP JUMPDEST PUSH2 0x324 DUP2 PUSH2 0x2B3 JUMP JUMPDEST DUP3 MSTORE POP POP JUMP JUMPDEST PUSH1 0x0 PUSH2 0x336 DUP4 DUP4 PUSH2 0x31B JUMP JUMPDEST PUSH1 0x20 DUP4 ADD SWAP1 POP SWAP3 SWAP2 POP POP JUMP JUMPDEST PUSH1 0x0 PUSH1 0x20 DUP3 ADD SWAP1 POP SWAP2 SWAP1 POP JUMP JUMPDEST PUSH1 0x0 PUSH2 0x35A DUP3 PUSH2 0x2EF JUMP JUMPDEST PUSH2 0x364 DUP2 DUP6 PUSH2 0x2FA JUMP JUMPDEST SWAP4 POP PUSH2 0x36F DUP4 PUSH2 0x30B JUMP JUMPDEST DUP1 PUSH1 0x0 JUMPDEST DUP4 DUP2 LT ISZERO PUSH2 0x3A0 JUMPI DUP2 MLOAD PUSH2 0x387 DUP9 DUP3 PUSH2 0x32A JUMP JUMPDEST SWAP8 POP PUSH2 0x392 DUP4 PUSH2 0x342 JUMP JUMPDEST SWAP3 POP POP PUSH1 0x1 DUP2 ADD SWAP1 POP PUSH2 0x373 JUMP JUMPDEST POP DUP6 SWAP4 POP POP POP POP SWAP3 SWAP2 POP POP JUMP JUMPDEST PUSH1 0x0 PUSH1 0x20 DUP3 ADD SWAP1 POP DUP2 DUP2 SUB PUSH1 0x0 DUP4 ADD MSTORE PUSH2 0x3C7 DUP2 DUP5 PUSH2 0x34F JUMP JUMPDEST SWAP1 POP SWAP3 SWAP2 POP POP JUMP JUMPDEST PUSH2 0x3D8 DUP2 PUSH2 0x230 JUMP JUMPDEST DUP3 MSTORE POP POP JUMP JUMPDEST PUSH1 0x0 PUSH1 0x40 DUP3 ADD SWAP1 POP PUSH2 0x3F3 PUSH1 0x0 DUP4 ADD DUP6 PUSH2 0x3CF JUMP JUMPDEST PUSH2 0x400 PUSH1 0x20 DUP4 ADD DUP5 PUSH2 0x2C5 JUMP JUMPDEST SWAP4 SWAP3 POP POP POP JUMP INVALID PUSH1 0x80 PUSH1 0x40 MSTORE CALLVALUE DUP1 ISZERO PUSH3 0x11 JUMPI PUSH1 0x0 DUP1 REVERT JUMPDEST POP PUSH1 0x40 MLOAD PUSH3 0x11A1 CODESIZE SUB DUP1 PUSH3 0x11A1 DUP4 CODECOPY DUP2 DUP2 ADD PUSH1 0x40 MSTORE DUP2 ADD SWAP1 PUSH3 0x37 SWAP2 SWAP1 PUSH3 0x12C JUMP JUMPDEST DUP1 PUSH1 0x1 PUSH1 0x0 PUSH2 0x100 EXP DUP2 SLOAD DUP2 PUSH20 0xFFFFFFFFFFFFFFFFFFFFFFFFFFFFFFFFFFFFFFFF MUL NOT AND SWAP1 DUP4 PUSH20 0xFFFFFFFFFFFFFFFFFFFFFFFFFFFFFFFFFFFFFFFF AND MUL OR SWAP1 SSTORE POP DUP2 PUSH1 0x3 DUP2 SWAP1 SSTORE POP POP POP PUSH3 0x173 JUMP JUMPDEST PUSH1 0x0 DUP1 REVERT JUMPDEST PUSH1 0x0 DUP2 SWAP1 POP SWAP2 SWAP1 POP JUMP JUMPDEST PUSH3 0xA1 DUP2 PUSH3 0x8C JUMP JUMPDEST DUP2 EQ PUSH3 0xAD JUMPI PUSH1 0x0 DUP1 REVERT JUMPDEST POP JUMP JUMPDEST PUSH1 0x0 DUP2 MLOAD SWAP1 POP PUSH3 0xC1 DUP2 PUSH3 0x96 JUMP JUMPDEST SWAP3 SWAP2 POP POP JUMP JUMPDEST PUSH1 0x0 PUSH20 0xFFFFFFFFFFFFFFFFFFFFFFFFFFFFFFFFFFFFFFFF DUP3 AND SWAP1 POP SWAP2 SWAP1 POP JUMP JUMPDEST PUSH1 0x0 PUSH3 0xF4 DUP3 PUSH3 0xC7 JUMP JUMPDEST SWAP1 POP SWAP2 SWAP1 POP JUMP JUMPDEST PUSH3 0x106 DUP2 PUSH3 0xE7 JUMP JUMPDEST DUP2 EQ PUSH3 0x112 JUMPI PUSH1 0x0 DUP1 REVERT JUMPDEST POP JUMP JUMPDEST PUSH1 0x0 DUP2 MLOAD SWAP1 POP PUSH3 0x126 DUP2 PUSH3 0xFB JUMP JUMPDEST SWAP3 SWAP2 POP POP JUMP JUMPDEST PUSH1 0x0 DUP1 PUSH1 0x40 DUP4 DUP6 SUB SLT ISZERO PUSH3 0x146 JUMPI PUSH3 0x145 PUSH3 0x87 JUMP JUMPDEST JUMPDEST PUSH1 0x0 PUSH3 0x156 DUP6 DUP3 DUP7 ADD PUSH3 0xB0 JUMP JUMPDEST SWAP3 POP POP PUSH1 0x20 PUSH3 0x169 DUP6 DUP3 DUP7 ADD PUSH3 0x115 JUMP JUMPDEST SWAP2 POP POP SWAP3 POP SWAP3 SWAP1 POP JUMP JUMPDEST PUSH2 0x101E DUP1 PUSH3 0x183 PUSH1 0x0 CODECOPY PUSH1 0x0 RETURN INVALID PUSH1 0x80 PUSH1 0x40 MSTORE PUSH1 0x4 CALLDATASIZE LT PUSH2 0xC2 JUMPI PUSH1 0x0 CALLDATALOAD PUSH1 0xE0 SHR DUP1 PUSH4 0x81D12C58 GT PUSH2 0x7F JUMPI DUP1 PUSH4 0xAAFFADF3 GT PUSH2 0x59 JUMPI DUP1 PUSH4 0xAAFFADF3 EQ PUSH2 0x272 JUMPI DUP1 PUSH4 0xD5009584 EQ PUSH2 0x29D JUMPI DUP1 PUSH4 0xD7BB99BA EQ PUSH2 0x2C8 JUMPI DUP1 PUSH4 0xD7D1BBDB EQ PUSH2 0x2D2 JUMPI PUSH2 0xC2 JUMP JUMPDEST DUP1 PUSH4 0x81D12C58 EQ PUSH2 0x1D9 JUMPI DUP1 PUSH4 0x8A9CFD55 EQ PUSH2 0x21A JUMPI DUP1 PUSH4 0xA00C96D7 EQ PUSH2 0x243 JUMPI PUSH2 0xC2 JUMP JUMPDEST DUP1 PUSH4 0x3441006 EQ PUSH2 0xC7 JUMPI DUP1 PUSH4 0x12065FE0 EQ PUSH2 0xF0 JUMPI DUP1 PUSH4 0x1F6D4942 EQ PUSH2 0x11B JUMPI DUP1 PUSH4 0x3410452A EQ PUSH2 0x158 JUMPI DUP1 PUSH4 0x481C6A75 EQ PUSH2 0x183 JUMPI DUP1 PUSH4 0x6CFF7473 EQ PUSH2 0x1AE JUMPI JUMPDEST PUSH1 0x0 DUP1 REVERT JUMPDEST CALLVALUE DUP1 ISZERO PUSH2 0xD3 JUMPI PUSH1 0x0 DUP1 REVERT JUMPDEST POP PUSH2 0xEE PUSH1 0x4 DUP1 CALLDATASIZE SUB DUP2 ADD SWAP1 PUSH2 0xE9 SWAP2 SWAP1 PUSH2 0xA07 JUMP JUMPDEST PUSH2 0x2FB JUMP JUMPDEST STOP JUMPDEST CALLVALUE DUP1 ISZERO PUSH2 0xFC JUMPI PUSH1 0x0 DUP1 REVERT JUMPDEST POP PUSH2 0x105 PUSH2 0x44A JUMP JUMPDEST PUSH1 0x40 MLOAD PUSH2 0x112 SWAP2 SWAP1 PUSH2 0xA43 JUMP JUMPDEST PUSH1 0x40 MLOAD DUP1 SWAP2 SUB SWAP1 RETURN JUMPDEST CALLVALUE DUP1 ISZERO PUSH2 0x127 JUMPI PUSH1 0x0 DUP1 REVERT JUMPDEST POP PUSH2 0x142 PUSH1 0x4 DUP1 CALLDATASIZE SUB DUP2 ADD SWAP1 PUSH2 0x13D SWAP2 SWAP1 PUSH2 0xABC JUMP JUMPDEST PUSH2 0x452 JUMP JUMPDEST PUSH1 0x40 MLOAD PUSH2 0x14F SWAP2 SWAP1 PUSH2 0xB04 JUMP JUMPDEST PUSH1 0x40 MLOAD DUP1 SWAP2 SUB SWAP1 RETURN JUMPDEST CALLVALUE DUP1 ISZERO PUSH2 0x164 JUMPI PUSH1 0x0 DUP1 REVERT JUMPDEST POP PUSH2 0x16D PUSH2 0x472 JUMP JUMPDEST PUSH1 0x40 MLOAD PUSH2 0x17A SWAP2 SWAP1 PUSH2 0xA43 JUMP JUMPDEST PUSH1 0x40 MLOAD DUP1 SWAP2 SUB SWAP1 RETURN JUMPDEST CALLVALUE DUP1 ISZERO PUSH2 0x18F JUMPI PUSH1 0x0 DUP1 REVERT JUMPDEST POP PUSH2 0x198 PUSH2 0x47E JUMP JUMPDEST PUSH1 0x40 MLOAD PUSH2 0x1A5 SWAP2 SWAP1 PUSH2 0xB2E JUMP JUMPDEST PUSH1 0x40 MLOAD DUP1 SWAP2 SUB SWAP1 RETURN JUMPDEST CALLVALUE DUP1 ISZERO PUSH2 0x1BA JUMPI PUSH1 0x0 DUP1 REVERT JUMPDEST POP PUSH2 0x1C3 PUSH2 0x4A4 JUMP JUMPDEST PUSH1 0x40 MLOAD PUSH2 0x1D0 SWAP2 SWAP1 PUSH2 0xA43 JUMP JUMPDEST PUSH1 0x40 MLOAD DUP1 SWAP2 SUB SWAP1 RETURN JUMPDEST CALLVALUE DUP1 ISZERO PUSH2 0x1E5 JUMPI PUSH1 0x0 DUP1 REVERT JUMPDEST POP PUSH2 0x200 PUSH1 0x4 DUP1 CALLDATASIZE SUB DUP2 ADD SWAP1 PUSH2 0x1FB SWAP2 SWAP1 PUSH2 0xA07 JUMP JUMPDEST PUSH2 0x4AE JUMP JUMPDEST PUSH1 0x40 MLOAD PUSH2 0x211 SWAP6 SWAP5 SWAP4 SWAP3 SWAP2 SWAP1 PUSH2 0xC03 JUMP JUMPDEST PUSH1 0x40 MLOAD DUP1 SWAP2 SUB SWAP1 RETURN JUMPDEST CALLVALUE DUP1 ISZERO PUSH2 0x226 JUMPI PUSH1 0x0 DUP1 REVERT JUMPDEST POP PUSH2 0x241 PUSH1 0x4 DUP1 CALLDATASIZE SUB DUP2 ADD SWAP1 PUSH2 0x23C SWAP2 SWAP1 PUSH2 0xDBE JUMP JUMPDEST PUSH2 0x5A9 JUMP JUMPDEST STOP JUMPDEST CALLVALUE DUP1 ISZERO PUSH2 0x24F JUMPI PUSH1 0x0 DUP1 REVERT JUMPDEST POP PUSH2 0x258 PUSH2 0x6B8 JUMP JUMPDEST PUSH1 0x40 MLOAD PUSH2 0x269 SWAP6 SWAP5 SWAP4 SWAP3 SWAP2 SWAP1 PUSH2 0xE2D JUMP JUMPDEST PUSH1 0x40 MLOAD DUP1 SWAP2 SUB SWAP1 RETURN JUMPDEST CALLVALUE DUP1 ISZERO PUSH2 0x27E JUMPI PUSH1 0x0 DUP1 REVERT JUMPDEST POP PUSH2 0x287 PUSH2 0x701 JUMP JUMPDEST PUSH1 0x40 MLOAD PUSH2 0x294 SWAP2 SWAP1 PUSH2 0xA43 JUMP JUMPDEST PUSH1 0x40 MLOAD DUP1 SWAP2 SUB SWAP1 RETURN JUMPDEST CALLVALUE DUP1 ISZERO PUSH2 0x2A9 JUMPI PUSH1 0x0 DUP1 REVERT JUMPDEST POP PUSH2 0x2B2 PUSH2 0x707 JUMP JUMPDEST PUSH1 0x40 MLOAD PUSH2 0x2BF SWAP2 SWAP1 PUSH2 0xB2E JUMP JUMPDEST PUSH1 0x40 MLOAD DUP1 SWAP2 SUB SWAP1 RETURN JUMPDEST PUSH2 0x2D0 PUSH2 0x731 JUMP JUMPDEST STOP JUMPDEST CALLVALUE DUP1 ISZERO PUSH2 0x2DE JUMPI PUSH1 0x0 DUP1 REVERT JUMPDEST POP PUSH2 0x2F9 PUSH1 0x4 DUP1 CALLDATASIZE SUB DUP2 ADD SWAP1 PUSH2 0x2F4 SWAP2 SWAP1 PUSH2 0xA07 JUMP JUMPDEST PUSH2 0x7B2 JUMP JUMPDEST STOP JUMPDEST PUSH1 0x1 PUSH1 0x0 SWAP1 SLOAD SWAP1 PUSH2 0x100 EXP SWAP1 DIV PUSH20 0xFFFFFFFFFFFFFFFFFFFFFFFFFFFFFFFFFFFFFFFF AND PUSH20 0xFFFFFFFFFFFFFFFFFFFFFFFFFFFFFFFFFFFFFFFF AND CALLER PUSH20 0xFFFFFFFFFFFFFFFFFFFFFFFFFFFFFFFFFFFFFFFF AND EQ PUSH2 0x355 JUMPI PUSH1 0x0 DUP1 REVERT JUMPDEST PUSH1 0x0 DUP1 DUP3 DUP2 SLOAD DUP2 LT PUSH2 0x36A JUMPI PUSH2 0x369 PUSH2 0xE80 JUMP JUMPDEST JUMPDEST SWAP1 PUSH1 0x0 MSTORE PUSH1 0x20 PUSH1 0x0 KECCAK256 SWAP1 PUSH1 0x6 MUL ADD SWAP1 POP DUP1 PUSH1 0x4 ADD PUSH1 0x0 SWAP1 SLOAD SWAP1 PUSH2 0x100 EXP SWAP1 DIV PUSH1 0xFF AND ISZERO PUSH2 0x396 JUMPI PUSH1 0x0 DUP1 REVERT JUMPDEST PUSH1 0x2 PUSH1 0x4 SLOAD PUSH2 0x3A5 SWAP2 SWAP1 PUSH2 0xF0D JUMP JUMPDEST DUP2 PUSH1 0x5 ADD SLOAD GT PUSH2 0x3B4 JUMPI PUSH1 0x0 DUP1 REVERT JUMPDEST PUSH1 0x0 DUP2 PUSH1 0x1 ADD SLOAD SWAP1 POP DUP2 PUSH1 0x2 ADD PUSH1 0x0 SWAP1 SLOAD SWAP1 PUSH2 0x100 EXP SWAP1 DIV PUSH20 0xFFFFFFFFFFFFFFFFFFFFFFFFFFFFFFFFFFFFFFFF AND PUSH20 0xFFFFFFFFFFFFFFFFFFFFFFFFFFFFFFFFFFFFFFFF AND PUSH2 0x8FC DUP3 SWAP1 DUP2 ISZERO MUL SWAP1 PUSH1 0x40 MLOAD PUSH1 0x0 PUSH1 0x40 MLOAD DUP1 DUP4 SUB DUP2 DUP6 DUP9 DUP9 CALL SWAP4 POP POP POP POP ISZERO DUP1 ISZERO PUSH2 0x427 JUMPI RETURNDATASIZE PUSH1 0x0 DUP1 RETURNDATACOPY RETURNDATASIZE PUSH1 0x0 REVERT JUMPDEST POP PUSH1 0x1 DUP3 PUSH1 0x4 ADD PUSH1 0x0 PUSH2 0x100 EXP DUP2 SLOAD DUP2 PUSH1 0xFF MUL NOT AND SWAP1 DUP4 ISZERO ISZERO MUL OR SWAP1 SSTORE POP POP POP POP JUMP JUMPDEST PUSH1 0x0 SELFBALANCE SWAP1 POP SWAP1 JUMP JUMPDEST PUSH1 0x2 PUSH1 0x20 MSTORE DUP1 PUSH1 0x0 MSTORE PUSH1 0x40 PUSH1 0x0 KECCAK256 PUSH1 0x0 SWAP2 POP SLOAD SWAP1 PUSH2 0x100 EXP SWAP1 DIV PUSH1 0xFF AND DUP2 JUMP JUMPDEST PUSH1 0x0 DUP1 DUP1 SLOAD SWAP1 POP SWAP1 POP SWAP1 JUMP JUMPDEST PUSH1 0x1 PUSH1 0x0 SWAP1 SLOAD SWAP1 PUSH2 0x100 EXP SWAP1 DIV PUSH20 0xFFFFFFFFFFFFFFFFFFFFFFFFFFFFFFFFFFFFFFFF AND DUP2 JUMP JUMPDEST PUSH1 0x0 PUSH1 0x3 SLOAD SWAP1 POP SWAP1 JUMP JUMPDEST PUSH1 0x0 DUP2 DUP2 SLOAD DUP2 LT PUSH2 0x4BE JUMPI PUSH1 0x0 DUP1 REVERT JUMPDEST SWAP1 PUSH1 0x0 MSTORE PUSH1 0x20 PUSH1 0x0 KECCAK256 SWAP1 PUSH1 0x6 MUL ADD PUSH1 0x0 SWAP2 POP SWAP1 POP DUP1 PUSH1 0x0 ADD DUP1 SLOAD PUSH2 0x4E1 SWAP1 PUSH2 0xF6D JUMP JUMPDEST DUP1 PUSH1 0x1F ADD PUSH1 0x20 DUP1 SWAP2 DIV MUL PUSH1 0x20 ADD PUSH1 0x40 MLOAD SWAP1 DUP2 ADD PUSH1 0x40 MSTORE DUP1 SWAP3 SWAP2 SWAP1 DUP2 DUP2 MSTORE PUSH1 0x20 ADD DUP3 DUP1 SLOAD PUSH2 0x50D SWAP1 PUSH2 0xF6D JUMP JUMPDEST DUP1 ISZERO PUSH2 0x55A JUMPI DUP1 PUSH1 0x1F LT PUSH2 0x52F JUMPI PUSH2 0x100 DUP1 DUP4 SLOAD DIV MUL DUP4 MSTORE SWAP2 PUSH1 0x20 ADD SWAP2 PUSH2 0x55A JUMP JUMPDEST DUP3 ADD SWAP2 SWAP1 PUSH1 0x0 MSTORE PUSH1 0x20 PUSH1 0x0 KECCAK256 SWAP1 JUMPDEST DUP2 SLOAD DUP2 MSTORE SWAP1 PUSH1 0x1 ADD SWAP1 PUSH1 0x20 ADD DUP1 DUP4 GT PUSH2 0x53D JUMPI DUP3 SWAP1 SUB PUSH1 0x1F AND DUP3 ADD SWAP2 JUMPDEST POP POP POP POP POP SWAP1 DUP1 PUSH1 0x1 ADD SLOAD SWAP1 DUP1 PUSH1 0x2 ADD PUSH1 0x0 SWAP1 SLOAD SWAP1 PUSH2 0x100 EXP SWAP1 DIV PUSH20 0xFFFFFFFFFFFFFFFFFFFFFFFFFFFFFFFFFFFFFFFF AND SWAP1 DUP1 PUSH1 0x4 ADD PUSH1 0x0 SWAP1 SLOAD SWAP1 PUSH2 0x100 EXP SWAP1 DIV PUSH1 0xFF AND SWAP1 DUP1 PUSH1 0x5 ADD SLOAD SWAP1 POP DUP6 JUMP JUMPDEST PUSH1 0x1 PUSH1 0x0 SWAP1 SLOAD SWAP1 PUSH2 0x100 EXP SWAP1 DIV PUSH20 0xFFFFFFFFFFFFFFFFFFFFFFFFFFFFFFFFFFFFFFFF AND PUSH20 0xFFFFFFFFFFFFFFFFFFFFFFFFFFFFFFFFFFFFFFFF AND CALLER PUSH20 0xFFFFFFFFFFFFFFFFFFFFFFFFFFFFFFFFFFFFFFFF AND EQ PUSH2 0x603 JUMPI PUSH1 0x0 DUP1 REVERT JUMPDEST PUSH1 0x0 DUP1 PUSH1 0x1 DUP2 PUSH1 0x1 DUP2 SLOAD ADD DUP1 DUP3 SSTORE DUP1 SWAP2 POP POP SUB SWAP1 PUSH1 0x0 MSTORE PUSH1 0x20 PUSH1 0x0 KECCAK256 SWAP1 PUSH1 0x6 MUL ADD SWAP1 POP DUP4 DUP2 PUSH1 0x0 ADD SWAP1 DUP1 MLOAD SWAP1 PUSH1 0x20 ADD SWAP1 PUSH2 0x63E SWAP3 SWAP2 SWAP1 PUSH2 0x91A JUMP JUMPDEST POP DUP3 DUP2 PUSH1 0x1 ADD DUP2 SWAP1 SSTORE POP DUP2 DUP2 PUSH1 0x2 ADD PUSH1 0x0 PUSH2 0x100 EXP DUP2 SLOAD DUP2 PUSH20 0xFFFFFFFFFFFFFFFFFFFFFFFFFFFFFFFFFFFFFFFF MUL NOT AND SWAP1 DUP4 PUSH20 0xFFFFFFFFFFFFFFFFFFFFFFFFFFFFFFFFFFFFFFFF AND MUL OR SWAP1 SSTORE POP PUSH1 0x0 DUP2 PUSH1 0x4 ADD PUSH1 0x0 PUSH2 0x100 EXP DUP2 SLOAD DUP2 PUSH1 0xFF MUL NOT AND SWAP1 DUP4 ISZERO ISZERO MUL OR SWAP1 SSTORE POP PUSH1 0x0 DUP2 PUSH1 0x5 ADD DUP2 SWAP1 SSTORE POP POP POP POP POP JUMP JUMPDEST PUSH1 0x0 DUP1 PUSH1 0x0 DUP1 PUSH1 0x0 PUSH1 0x3 SLOAD SELFBALANCE PUSH1 0x0 DUP1 SLOAD SWAP1 POP PUSH1 0x4 SLOAD PUSH1 0x1 PUSH1 0x0 SWAP1 SLOAD SWAP1 PUSH2 0x100 EXP SWAP1 DIV PUSH20 0xFFFFFFFFFFFFFFFFFFFFFFFFFFFFFFFFFFFFFFFF AND SWAP5 POP SWAP5 POP SWAP5 POP SWAP5 POP SWAP5 POP SWAP1 SWAP2 SWAP3 SWAP4 SWAP5 JUMP JUMPDEST PUSH1 0x3 SLOAD DUP2 JUMP JUMPDEST PUSH1 0x0 PUSH1 0x1 PUSH1 0x0 SWAP1 SLOAD SWAP1 PUSH2 0x100 EXP SWAP1 DIV PUSH20 0xFFFFFFFFFFFFFFFFFFFFFFFFFFFFFFFFFFFFFFFF AND SWAP1 POP SWAP1 JUMP JUMPDEST PUSH1 0x3 SLOAD CALLVALUE LT ISZERO PUSH2 0x740 JUMPI PUSH1 0x0 DUP1 REVERT JUMPDEST PUSH1 0x1 PUSH1 0x2 PUSH1 0x0 CALLER PUSH20 0xFFFFFFFFFFFFFFFFFFFFFFFFFFFFFFFFFFFFFFFF AND PUSH20 0xFFFFFFFFFFFFFFFFFFFFFFFFFFFFFFFFFFFFFFFF AND DUP2 MSTORE PUSH1 0x20 ADD SWAP1 DUP2 MSTORE PUSH1 0x20 ADD PUSH1 0x0 KECCAK256 PUSH1 0x0 PUSH2 0x100 EXP DUP2 SLOAD DUP2 PUSH1 0xFF MUL NOT AND SWAP1 DUP4 ISZERO ISZERO MUL OR SWAP1 SSTORE POP PUSH1 0x4 PUSH1 0x0 DUP2 SLOAD DUP1 SWAP3 SWAP2 SWAP1 PUSH2 0x7AB SWAP1 PUSH2 0xF9F JUMP JUMPDEST SWAP2 SWAP1 POP SSTORE POP JUMP JUMPDEST PUSH1 0x2 PUSH1 0x0 CALLER PUSH20 0xFFFFFFFFFFFFFFFFFFFFFFFFFFFFFFFFFFFFFFFF AND PUSH20 0xFFFFFFFFFFFFFFFFFFFFFFFFFFFFFFFFFFFFFFFF AND DUP2 MSTORE PUSH1 0x20 ADD SWAP1 DUP2 MSTORE PUSH1 0x20 ADD PUSH1 0x0 KECCAK256 PUSH1 0x0 SWAP1 SLOAD SWAP1 PUSH2 0x100 EXP SWAP1 DIV PUSH1 0xFF AND PUSH2 0x808 JUMPI PUSH1 0x0 DUP1 REVERT JUMPDEST PUSH1 0x0 DUP1 DUP3 DUP2 SLOAD DUP2 LT PUSH2 0x81D JUMPI PUSH2 0x81C PUSH2 0xE80 JUMP JUMPDEST JUMPDEST SWAP1 PUSH1 0x0 MSTORE PUSH1 0x20 PUSH1 0x0 KECCAK256 SWAP1 PUSH1 0x6 MUL ADD SWAP1 POP DUP1 PUSH1 0x4 ADD PUSH1 0x0 SWAP1 SLOAD SWAP1 PUSH2 0x100 EXP SWAP1 DIV PUSH1 0xFF AND ISZERO PUSH2 0x849 JUMPI PUSH1 0x0 DUP1 REVERT JUMPDEST DUP1 PUSH1 0x3 ADD PUSH1 0x0 CALLER PUSH20 0xFFFFFFFFFFFFFFFFFFFFFFFFFFFFFFFFFFFFFFFF AND PUSH20 0xFFFFFFFFFFFFFFFFFFFFFFFFFFFFFFFFFFFFFFFF AND DUP2 MSTORE PUSH1 0x20 ADD SWAP1 DUP2 MSTORE PUSH1 0x20 ADD PUSH1 0x0 KECCAK256 PUSH1 0x0 SWAP1 SLOAD SWAP1 PUSH2 0x100 EXP SWAP1 DIV PUSH1 0xFF AND ISZERO PUSH2 0x8A2 JUMPI PUSH1 0x0 DUP1 REVERT JUMPDEST PUSH1 0x1 DUP2 PUSH1 0x3 ADD PUSH1 0x0 CALLER PUSH20 0xFFFFFFFFFFFFFFFFFFFFFFFFFFFFFFFFFFFFFFFF AND PUSH20 0xFFFFFFFFFFFFFFFFFFFFFFFFFFFFFFFFFFFFFFFF AND DUP2 MSTORE PUSH1 0x20 ADD SWAP1 DUP2 MSTORE PUSH1 0x20 ADD PUSH1 0x0 KECCAK256 PUSH1 0x0 PUSH2 0x100 EXP DUP2 SLOAD DUP2 PUSH1 0xFF MUL NOT AND SWAP1 DUP4 ISZERO ISZERO MUL OR SWAP1 SSTORE POP DUP1 PUSH1 0x5 ADD PUSH1 0x0 DUP2 SLOAD DUP1 SWAP3 SWAP2 SWAP1 PUSH2 0x911 SWAP1 PUSH2 0xF9F JUMP JUMPDEST SWAP2 SWAP1 POP SSTORE POP POP POP JUMP JUMPDEST DUP3 DUP1 SLOAD PUSH2 0x926 SWAP1 PUSH2 0xF6D JUMP JUMPDEST SWAP1 PUSH1 0x0 MSTORE PUSH1 0x20 PUSH1 0x0 KECCAK256 SWAP1 PUSH1 0x1F ADD PUSH1 0x20 SWAP1 DIV DUP2 ADD SWAP3 DUP3 PUSH2 0x948 JUMPI PUSH1 0x0 DUP6 SSTORE PUSH2 0x98F JUMP JUMPDEST DUP3 PUSH1 0x1F LT PUSH2 0x961 JUMPI DUP1 MLOAD PUSH1 0xFF NOT AND DUP4 DUP1 ADD OR DUP6 SSTORE PUSH2 0x98F JUMP JUMPDEST DUP3 DUP1 ADD PUSH1 0x1 ADD DUP6 SSTORE DUP3 ISZERO PUSH2 0x98F JUMPI SWAP2 DUP3 ADD JUMPDEST DUP3 DUP2 GT ISZERO PUSH2 0x98E JUMPI DUP3 MLOAD DUP3 SSTORE SWAP2 PUSH1 0x20 ADD SWAP2 SWAP1 PUSH1 0x1 ADD SWAP1 PUSH2 0x973 JUMP JUMPDEST JUMPDEST POP SWAP1 POP PUSH2 0x99C SWAP2 SWAP1 PUSH2 0x9A0 JUMP JUMPDEST POP SWAP1 JUMP JUMPDEST JUMPDEST DUP1 DUP3 GT ISZERO PUSH2 0x9B9 JUMPI PUSH1 0x0 DUP2 PUSH1 0x0 SWAP1 SSTORE POP PUSH1 0x1 ADD PUSH2 0x9A1 JUMP JUMPDEST POP SWAP1 JUMP JUMPDEST PUSH1 0x0 PUSH1 0x40 MLOAD SWAP1 POP SWAP1 JUMP JUMPDEST PUSH1 0x0 DUP1 REVERT JUMPDEST PUSH1 0x0 DUP1 REVERT JUMPDEST PUSH1 0x0 DUP2 SWAP1 POP SWAP2 SWAP1 POP JUMP JUMPDEST PUSH2 0x9E4 DUP2 PUSH2 0x9D1 JUMP JUMPDEST DUP2 EQ PUSH2 0x9EF JUMPI PUSH1 0x0 DUP1 REVERT JUMPDEST POP JUMP JUMPDEST PUSH1 0x0 DUP2 CALLDATALOAD SWAP1 POP PUSH2 0xA01 DUP2 PUSH2 0x9DB JUMP JUMPDEST SWAP3 SWAP2 POP POP JUMP JUMPDEST PUSH1 0x0 PUSH1 0x20 DUP3 DUP5 SUB SLT ISZERO PUSH2 0xA1D JUMPI PUSH2 0xA1C PUSH2 0x9C7 JUMP JUMPDEST JUMPDEST PUSH1 0x0 PUSH2 0xA2B DUP5 DUP3 DUP6 ADD PUSH2 0x9F2 JUMP JUMPDEST SWAP2 POP POP SWAP3 SWAP2 POP POP JUMP JUMPDEST PUSH2 0xA3D DUP2 PUSH2 0x9D1 JUMP JUMPDEST DUP3 MSTORE POP POP JUMP JUMPDEST PUSH1 0x0 PUSH1 0x20 DUP3 ADD SWAP1 POP PUSH2 0xA58 PUSH1 0x0 DUP4 ADD DUP5 PUSH2 0xA34 JUMP JUMPDEST SWAP3 SWAP2 POP POP JUMP JUMPDEST PUSH1 0x0 PUSH20 0xFFFFFFFFFFFFFFFFFFFFFFFFFFFFFFFFFFFFFFFF DUP3 AND SWAP1 POP SWAP2 SWAP1 POP JUMP JUMPDEST PUSH1 0x0 PUSH2 0xA89 DUP3 PUSH2 0xA5E JUMP JUMPDEST SWAP1 POP SWAP2 SWAP1 POP JUMP JUMPDEST PUSH2 0xA99 DUP2 PUSH2 0xA7E JUMP JUMPDEST DUP2 EQ PUSH2 0xAA4 JUMPI PUSH1 0x0 DUP1 REVERT JUMPDEST POP JUMP JUMPDEST PUSH1 0x0 DUP2 CALLDATALOAD SWAP1 POP PUSH2 0xAB6 DUP2 PUSH2 0xA90 JUMP JUMPDEST SWAP3 SWAP2 POP POP JUMP JUMPDEST PUSH1 0x0 PUSH1 0x20 DUP3 DUP5 SUB SLT ISZERO PUSH2 0xAD2 JUMPI PUSH2 0xAD1 PUSH2 0x9C7 JUMP JUMPDEST JUMPDEST PUSH1 0x0 PUSH2 0xAE0 DUP5 DUP3 DUP6 ADD PUSH2 0xAA7 JUMP JUMPDEST SWAP2 POP POP SWAP3 SWAP2 POP POP JUMP JUMPDEST PUSH1 0x0 DUP2 ISZERO ISZERO SWAP1 POP SWAP2 SWAP1 POP JUMP JUMPDEST PUSH2 0xAFE DUP2 PUSH2 0xAE9 JUMP JUMPDEST DUP3 MSTORE POP POP JUMP JUMPDEST PUSH1 0x0 PUSH1 0x20 DUP3 ADD SWAP1 POP PUSH2 0xB19 PUSH1 0x0 DUP4 ADD DUP5 PUSH2 0xAF5 JUMP JUMPDEST SWAP3 SWAP2 POP POP JUMP JUMPDEST PUSH2 0xB28 DUP2 PUSH2 0xA7E JUMP JUMPDEST DUP3 MSTORE POP POP JUMP JUMPDEST PUSH1 0x0 PUSH1 0x20 DUP3 ADD SWAP1 POP PUSH2 0xB43 PUSH1 0x0 DUP4 ADD DUP5 PUSH2 0xB1F JUMP JUMPDEST SWAP3 SWAP2 POP POP JUMP JUMPDEST PUSH1 0x0 DUP2 MLOAD SWAP1 POP SWAP2 SWAP1 POP JUMP JUMPDEST PUSH1 0x0 DUP3 DUP3 MSTORE PUSH1 0x20 DUP3 ADD SWAP1 POP SWAP3 SWAP2 POP POP JUMP JUMPDEST PUSH1 0x0 JUMPDEST DUP4 DUP2 LT ISZERO PUSH2 0xB83 JUMPI DUP1 DUP3 ADD MLOAD DUP2 DUP5 ADD MSTORE PUSH1 0x20 DUP2 ADD SWAP1 POP PUSH2 0xB68 JUMP JUMPDEST DUP4 DUP2 GT ISZERO PUSH2 0xB92 JUMPI PUSH1 0x0 DUP5 DUP5 ADD MSTORE JUMPDEST POP POP POP POP JUMP JUMPDEST PUSH1 0x0 PUSH1 0x1F NOT PUSH1 0x1F DUP4 ADD AND SWAP1 POP SWAP2 SWAP1 POP JUMP JUMPDEST PUSH1 0x0 PUSH2 0xBB4 DUP3 PUSH2 0xB49 JUMP JUMPDEST PUSH2 0xBBE DUP2 DUP6 PUSH2 0xB54 JUMP JUMPDEST SWAP4 POP PUSH2 0xBCE DUP2 DUP6 PUSH1 0x20 DUP7 ADD PUSH2 0xB65 JUMP JUMPDEST PUSH2 0xBD7 DUP2 PUSH2 0xB98 JUMP JUMPDEST DUP5 ADD SWAP2 POP POP SWAP3 SWAP2 POP POP JUMP JUMPDEST PUSH1 0x0 PUSH2 0xBED DUP3 PUSH2 0xA5E JUMP JUMPDEST SWAP1 POP SWAP2 SWAP1 POP JUMP JUMPDEST PUSH2 0xBFD DUP2 PUSH2 0xBE2 JUMP JUMPDEST DUP3 MSTORE POP POP JUMP JUMPDEST PUSH1 0x0 PUSH1 0xA0 DUP3 ADD SWAP1 POP DUP2 DUP2 SUB PUSH1 0x0 DUP4 ADD MSTORE PUSH2 0xC1D DUP2 DUP9 PUSH2 0xBA9 JUMP JUMPDEST SWAP1 POP PUSH2 0xC2C PUSH1 0x20 DUP4 ADD DUP8 PUSH2 0xA34 JUMP JUMPDEST PUSH2 0xC39 PUSH1 0x40 DUP4 ADD DUP7 PUSH2 0xBF4 JUMP JUMPDEST PUSH2 0xC46 PUSH1 0x60 DUP4 ADD DUP6 PUSH2 0xAF5 JUMP JUMPDEST PUSH2 0xC53 PUSH1 0x80 DUP4 ADD DUP5 PUSH2 0xA34 JUMP JUMPDEST SWAP7 SWAP6 POP POP POP POP POP POP JUMP JUMPDEST PUSH1 0x0 DUP1 REVERT JUMPDEST PUSH1 0x0 DUP1 REVERT JUMPDEST PUSH32 0x4E487B7100000000000000000000000000000000000000000000000000000000 PUSH1 0x0 MSTORE PUSH1 0x41 PUSH1 0x4 MSTORE PUSH1 0x24 PUSH1 0x0 REVERT JUMPDEST PUSH2 0xC9F DUP3 PUSH2 0xB98 JUMP JUMPDEST DUP2 ADD DUP2 DUP2 LT PUSH8 0xFFFFFFFFFFFFFFFF DUP3 GT OR ISZERO PUSH2 0xCBE JUMPI PUSH2 0xCBD PUSH2 0xC67 JUMP JUMPDEST JUMPDEST DUP1 PUSH1 0x40 MSTORE POP POP POP JUMP JUMPDEST PUSH1 0x0 PUSH2 0xCD1 PUSH2 0x9BD JUMP JUMPDEST SWAP1 POP PUSH2 0xCDD DUP3 DUP3 PUSH2 0xC96 JUMP JUMPDEST SWAP2 SWAP1 POP JUMP JUMPDEST PUSH1 0x0 PUSH8 0xFFFFFFFFFFFFFFFF DUP3 GT ISZERO PUSH2 0xCFD JUMPI PUSH2 0xCFC PUSH2 0xC67 JUMP JUMPDEST JUMPDEST PUSH2 0xD06 DUP3 PUSH2 0xB98 JUMP JUMPDEST SWAP1 POP PUSH1 0x20 DUP2 ADD SWAP1 POP SWAP2 SWAP1 POP JUMP JUMPDEST DUP3 DUP2 DUP4 CALLDATACOPY PUSH1 0x0 DUP4 DUP4 ADD MSTORE POP POP POP JUMP JUMPDEST PUSH1 0x0 PUSH2 0xD35 PUSH2 0xD30 DUP5 PUSH2 0xCE2 JUMP JUMPDEST PUSH2 0xCC7 JUMP JUMPDEST SWAP1 POP DUP3 DUP2 MSTORE PUSH1 0x20 DUP2 ADD DUP5 DUP5 DUP5 ADD GT ISZERO PUSH2 0xD51 JUMPI PUSH2 0xD50 PUSH2 0xC62 JUMP JUMPDEST JUMPDEST PUSH2 0xD5C DUP5 DUP3 DUP6 PUSH2 0xD13 JUMP JUMPDEST POP SWAP4 SWAP3 POP POP POP JUMP JUMPDEST PUSH1 0x0 DUP3 PUSH1 0x1F DUP4 ADD SLT PUSH2 0xD79 JUMPI PUSH2 0xD78 PUSH2 0xC5D JUMP JUMPDEST JUMPDEST DUP2 CALLDATALOAD PUSH2 0xD89 DUP5 DUP3 PUSH1 0x20 DUP7 ADD PUSH2 0xD22 JUMP JUMPDEST SWAP2 POP POP SWAP3 SWAP2 POP POP JUMP JUMPDEST PUSH2 0xD9B DUP2 PUSH2 0xBE2 JUMP JUMPDEST DUP2 EQ PUSH2 0xDA6 JUMPI PUSH1 0x0 DUP1 REVERT JUMPDEST POP JUMP JUMPDEST PUSH1 0x0 DUP2 CALLDATALOAD SWAP1 POP PUSH2 0xDB8 DUP2 PUSH2 0xD92 JUMP JUMPDEST SWAP3 SWAP2 POP POP JUMP JUMPDEST PUSH1 0x0 DUP1 PUSH1 0x0 PUSH1 0x60 DUP5 DUP7 SUB SLT ISZERO PUSH2 0xDD7 JUMPI PUSH2 0xDD6 PUSH2 0x9C7 JUMP JUMPDEST JUMPDEST PUSH1 0x0 DUP5 ADD CALLDATALOAD PUSH8 0xFFFFFFFFFFFFFFFF DUP2 GT ISZERO PUSH2 0xDF5 JUMPI PUSH2 0xDF4 PUSH2 0x9CC JUMP JUMPDEST JUMPDEST PUSH2 0xE01 DUP7 DUP3 DUP8 ADD PUSH2 0xD64 JUMP JUMPDEST SWAP4 POP POP PUSH1 0x20 PUSH2 0xE12 DUP7 DUP3 DUP8 ADD PUSH2 0x9F2 JUMP JUMPDEST SWAP3 POP POP PUSH1 0x40 PUSH2 0xE23 DUP7 DUP3 DUP8 ADD PUSH2 0xDA9 JUMP JUMPDEST SWAP2 POP POP SWAP3 POP SWAP3 POP SWAP3 JUMP JUMPDEST PUSH1 0x0 PUSH1 0xA0 DUP3 ADD SWAP1 POP PUSH2 0xE42 PUSH1 0x0 DUP4 ADD DUP9 PUSH2 0xA34 JUMP JUMPDEST PUSH2 0xE4F PUSH1 0x20 DUP4 ADD DUP8 PUSH2 0xA34 JUMP JUMPDEST PUSH2 0xE5C PUSH1 0x40 DUP4 ADD DUP7 PUSH2 0xA34 JUMP JUMPDEST PUSH2 0xE69 PUSH1 0x60 DUP4 ADD DUP6 PUSH2 0xA34 JUMP JUMPDEST PUSH2 0xE76 PUSH1 0x80 DUP4 ADD DUP5 PUSH2 0xB1F JUMP JUMPDEST SWAP7 SWAP6 POP POP POP POP POP POP JUMP JUMPDEST PUSH32 0x4E487B7100000000000000000000000000000000000000000000000000000000 PUSH1 0x0 MSTORE PUSH1 0x32 PUSH1 0x4 MSTORE PUSH1 0x24 PUSH1 0x0 REVERT JUMPDEST PUSH32 0x4E487B7100000000000000000000000000000000000000000000000000000000 PUSH1 0x0 MSTORE PUSH1 0x12 PUSH1 0x4 MSTORE PUSH1 0x24 PUSH1 0x0 REVERT JUMPDEST PUSH32 0x4E487B7100000000000000000000000000000000000000000000000000000000 PUSH1 0x0 MSTORE PUSH1 0x11 PUSH1 0x4 MSTORE PUSH1 0x24 PUSH1 0x0 REVERT JUMPDEST PUSH1 0x0 PUSH2 0xF18 DUP3 PUSH2 0x9D1 JUMP JUMPDEST SWAP2 POP PUSH2 0xF23 DUP4 PUSH2 0x9D1 JUMP JUMPDEST SWAP3 POP DUP3 PUSH2 0xF33 JUMPI PUSH2 0xF32 PUSH2 0xEAF JUMP JUMPDEST JUMPDEST DUP3 DUP3 DIV SWAP1 POP SWAP3 SWAP2 POP POP JUMP JUMPDEST PUSH32 0x4E487B7100000000000000000000000000000000000000000000000000000000 PUSH1 0x0 MSTORE PUSH1 0x22 PUSH1 0x4 MSTORE PUSH1 0x24 PUSH1 0x0 REVERT JUMPDEST PUSH1 0x0 PUSH1 0x2 DUP3 DIV SWAP1 POP PUSH1 0x1 DUP3 AND DUP1 PUSH2 0xF85 JUMPI PUSH1 0x7F DUP3 AND SWAP2 POP JUMPDEST PUSH1 0x20 DUP3 LT DUP2 EQ ISZERO PUSH2 0xF99 JUMPI PUSH2 0xF98 PUSH2 0xF3E JUMP JUMPDEST JUMPDEST POP SWAP2 SWAP1 POP JUMP JUMPDEST PUSH1 0x0 PUSH2 0xFAA DUP3 PUSH2 0x9D1 JUMP JUMPDEST SWAP2 POP PUSH32 0xFFFFFFFFFFFFFFFFFFFFFFFFFFFFFFFFFFFFFFFFFFFFFFFFFFFFFFFFFFFFFFFF DUP3 EQ ISZERO PUSH2 0xFDD JUMPI PUSH2 0xFDC PUSH2 0xEDE JUMP JUMPDEST JUMPDEST PUSH1 0x1 DUP3 ADD SWAP1 POP SWAP2 SWAP1 POP JUMP INVALID LOG2 PUSH5 0x6970667358 0x22 SLT KECCAK256 0xC6 0xF8 COINBASE ADDMOD BASEFEE 0x26 0xF8 0xE0 GASPRICE DUP1 0xB2 0xC9 MUL SLOAD PUSH4 0x3E503B79 SWAP12 DUP13 DIFFICULTY SHL 0xA9 0xE7 SWAP12 PUSH7 0x5A59D239EF6473 PUSH16 0x6C634300080C0033A264697066735822 SLT KECCAK256 0xC5 0xE7 0xF6 0xD2 ORIGIN PUSH23 0xAB526640F413F3D141EC21D3F20E5D4D7A007C393D1768 PUSH15 0x5D2764736F6C634300080C00330000 "},"gasEstimates":{"creation":{"codeDepositCost":"1119600","executionCost":"1160","totalCost":"1120760"},"external":{"createCampaign(uint256)":"infinite","deployedCampaigns(uint256)":"4934","getdeployedCampaigns()":"infinite"}},"methodIdentifiers":{"createCampaign(uint256)":"a3303a75","deployedCampaigns(uint256)":"339d50a5","getdeployedCampaigns()":"7e4b95f2"}},"storageLayout":{"storage":[{"astId":292,"contract":"Campaigns.sol:CampaignFactory","label":"deployedCampaigns","offset":0,"slot":"0","type":"t_array(t_address)dyn_storage"}],"types":{"t_address":{"encoding":"inplace","label":"address","numberOfBytes":"20"},"t_array(t_address)dyn_storage":{"base":"t_address","encoding":"dynamic_array","label":"address[]","numberOfBytes":"32"}}},"userdoc":{"kind":"user","methods":{},"version":1}}